{
  "_format": "hh-sol-artifact-1",
  "contractName": "EoaBond",
  "sourceName": "contracts/EoaBond.sol",
  "abi": [
    {
      "inputs": [],
      "stateMutability": "nonpayable",
      "type": "constructor"
    },
    {
      "inputs": [
        {
          "internalType": "uint256",
          "name": "bucketId",
          "type": "uint256"
        }
      ],
      "name": "BucketNotFound",
      "type": "error"
    },
    {
      "inputs": [
        {
          "internalType": "uint256",
          "name": "bucketId",
          "type": "uint256"
        }
      ],
      "name": "NoPolicyIdsInBucket",
      "type": "error"
    },
    {
      "anonymous": false,
      "inputs": [
        {
          "indexed": false,
          "internalType": "uint256",
          "name": "policyId",
          "type": "uint256"
        },
        {
          "indexed": false,
          "internalType": "address",
          "name": "allowedAddress",
          "type": "address"
        }
      ],
      "name": "AddressAddedToPolicy",
      "type": "event"
    },
    {
      "anonymous": false,
      "inputs": [
        {
          "indexed": false,
          "internalType": "address",
          "name": "mainEoa",
          "type": "address"
        },
        {
          "indexed": false,
          "internalType": "address",
          "name": "apiEoa",
          "type": "address"
        }
      ],
      "name": "Bond",
      "type": "event"
    },
    {
      "anonymous": false,
      "inputs": [
        {
          "indexed": false,
          "internalType": "uint256",
          "name": "bucketId",
          "type": "uint256"
        },
        {
          "indexed": false,
          "internalType": "address",
          "name": "owner",
          "type": "address"
        }
      ],
      "name": "BucketAdded",
      "type": "event"
    },
    {
      "anonymous": false,
      "inputs": [
        {
          "indexed": false,
          "internalType": "uint256",
          "name": "bucketId",
          "type": "uint256"
        }
      ],
      "name": "BucketDeactivated",
      "type": "event"
    },
    {
      "anonymous": false,
      "inputs": [
        {
          "indexed": true,
          "internalType": "address",
          "name": "owner",
          "type": "address"
        },
        {
          "indexed": false,
          "internalType": "uint256[]",
          "name": "policyId",
          "type": "uint256[]"
        }
      ],
      "name": "Debug",
      "type": "event"
    },
    {
      "anonymous": false,
      "inputs": [
        {
          "indexed": false,
          "internalType": "address",
          "name": "mainEoa",
          "type": "address"
        }
      ],
      "name": "Detach",
      "type": "event"
    },
    {
      "anonymous": false,
      "inputs": [
        {
          "indexed": false,
          "internalType": "uint8",
          "name": "version",
          "type": "uint8"
        }
      ],
      "name": "Initialized",
      "type": "event"
    },
    {
      "anonymous": false,
      "inputs": [
        {
          "indexed": false,
          "internalType": "uint256",
          "name": "policyId",
          "type": "uint256"
        },
        {
          "indexed": false,
          "internalType": "address",
          "name": "owner",
          "type": "address"
        }
      ],
      "name": "PolicyAdded",
      "type": "event"
    },
    {
      "anonymous": false,
      "inputs": [
        {
          "indexed": false,
          "internalType": "uint256",
          "name": "bucketId",
          "type": "uint256"
        },
        {
          "indexed": false,
          "internalType": "uint256",
          "name": "policyId",
          "type": "uint256"
        }
      ],
      "name": "PolicyAddedToBucket",
      "type": "event"
    },
    {
      "anonymous": false,
      "inputs": [
        {
          "indexed": false,
          "internalType": "uint256",
          "name": "policyId",
          "type": "uint256"
        }
      ],
      "name": "PolicyDeactivated",
      "type": "event"
    },
    {
      "anonymous": false,
      "inputs": [
        {
          "indexed": true,
          "internalType": "bytes32",
          "name": "role",
          "type": "bytes32"
        },
        {
          "indexed": true,
          "internalType": "bytes32",
          "name": "previousAdminRole",
          "type": "bytes32"
        },
        {
          "indexed": true,
          "internalType": "bytes32",
          "name": "newAdminRole",
          "type": "bytes32"
        }
      ],
      "name": "RoleAdminChanged",
      "type": "event"
    },
    {
      "anonymous": false,
      "inputs": [
        {
          "indexed": true,
          "internalType": "bytes32",
          "name": "role",
          "type": "bytes32"
        },
        {
          "indexed": true,
          "internalType": "address",
          "name": "account",
          "type": "address"
        },
        {
          "indexed": true,
          "internalType": "address",
          "name": "sender",
          "type": "address"
        }
      ],
      "name": "RoleGranted",
      "type": "event"
    },
    {
      "anonymous": false,
      "inputs": [
        {
          "indexed": true,
          "internalType": "bytes32",
          "name": "role",
          "type": "bytes32"
        },
        {
          "indexed": true,
          "internalType": "address",
          "name": "account",
          "type": "address"
        },
        {
          "indexed": true,
          "internalType": "address",
          "name": "sender",
          "type": "address"
        }
      ],
      "name": "RoleRevoked",
      "type": "event"
    },
    {
      "inputs": [],
      "name": "DEFAULT_ADMIN_ROLE",
      "outputs": [
        {
          "internalType": "bytes32",
          "name": "",
          "type": "bytes32"
        }
      ],
      "stateMutability": "view",
      "type": "function"
    },
    {
      "inputs": [
        {
          "internalType": "uint256",
          "name": "policyId",
          "type": "uint256"
        },
        {
          "internalType": "address",
          "name": "allowedAddress",
          "type": "address"
        }
      ],
      "name": "addAllowedAddressToPolicy",
      "outputs": [],
      "stateMutability": "nonpayable",
      "type": "function"
    },
    {
      "inputs": [
        {
          "internalType": "uint256",
          "name": "bucketId",
          "type": "uint256"
        },
        {
          "internalType": "uint256[]",
          "name": "policyIds",
          "type": "uint256[]"
        },
        {
          "internalType": "string",
          "name": "dataFormat",
          "type": "string"
        },
        {
          "internalType": "string",
          "name": "nodeAddress",
          "type": "string"
        }
      ],
      "name": "addBucket",
      "outputs": [],
      "stateMutability": "nonpayable",
      "type": "function"
    },
    {
      "inputs": [
        {
          "internalType": "uint256",
          "name": "policyId",
          "type": "uint256"
        },
        {
          "internalType": "string[]",
          "name": "allowedCategories",
          "type": "string[]"
        },
        {
          "internalType": "address[]",
          "name": "allowedAddresses",
          "type": "address[]"
        },
        {
          "internalType": "string[]",
          "name": "allowedColumns",
          "type": "string[]"
        },
        {
          "internalType": "uint256",
          "name": "expDate",
          "type": "uint256"
        },
        {
          "internalType": "uint256",
          "name": "price",
          "type": "uint256"
        }
      ],
      "name": "addPolicy",
      "outputs": [],
      "stateMutability": "nonpayable",
      "type": "function"
    },
    {
      "inputs": [
        {
          "internalType": "uint256",
          "name": "bucketId",
          "type": "uint256"
        },
        {
          "internalType": "uint256",
          "name": "policyId",
          "type": "uint256"
        }
      ],
      "name": "addPolicyToBucket",
      "outputs": [],
      "stateMutability": "nonpayable",
      "type": "function"
    },
    {
      "inputs": [
        {
          "internalType": "uint256",
          "name": "",
          "type": "uint256"
        }
      ],
      "name": "allBucketIds",
      "outputs": [
        {
          "internalType": "uint256",
          "name": "",
          "type": "uint256"
        }
      ],
      "stateMutability": "view",
      "type": "function"
    },
    {
      "inputs": [
        {
          "internalType": "address",
          "name": "",
          "type": "address"
        }
      ],
      "name": "apiEoas",
      "outputs": [
        {
          "internalType": "address",
          "name": "",
          "type": "address"
        }
      ],
      "stateMutability": "view",
      "type": "function"
    },
    {
      "inputs": [
        {
          "internalType": "address",
          "name": "apiEoa",
          "type": "address"
        }
      ],
      "name": "bond",
      "outputs": [],
      "stateMutability": "nonpayable",
      "type": "function"
    },
    {
      "inputs": [
        {
          "internalType": "uint256",
          "name": "",
          "type": "uint256"
        }
      ],
      "name": "buckets",
      "outputs": [
        {
          "internalType": "string",
          "name": "dataFormat",
          "type": "string"
        },
        {
          "internalType": "string",
          "name": "nodeAddress",
          "type": "string"
        },
        {
          "internalType": "address",
          "name": "owner",
          "type": "address"
        },
        {
          "internalType": "bool",
          "name": "deactivated",
          "type": "bool"
        }
      ],
      "stateMutability": "view",
      "type": "function"
    },
    {
      "inputs": [
        {
          "internalType": "address",
          "name": "",
          "type": "address"
        }
      ],
      "name": "dataProviders",
      "outputs": [
        {
          "internalType": "uint256",
          "name": "joinDate",
          "type": "uint256"
        },
        {
          "internalType": "string",
          "name": "category",
          "type": "string"
        }
      ],
      "stateMutability": "view",
      "type": "function"
    },
    {
      "inputs": [
        {
          "internalType": "address",
          "name": "",
          "type": "address"
        }
      ],
      "name": "dataSeekers",
      "outputs": [
        {
          "internalType": "uint256",
          "name": "joinDate",
          "type": "uint256"
        },
        {
          "internalType": "string",
          "name": "category",
          "type": "string"
        }
      ],
      "stateMutability": "view",
      "type": "function"
    },
    {
      "inputs": [
        {
          "internalType": "uint256",
          "name": "bucketId",
          "type": "uint256"
        }
      ],
      "name": "deactivateBucket",
      "outputs": [],
      "stateMutability": "nonpayable",
      "type": "function"
    },
    {
      "inputs": [
        {
          "internalType": "uint256",
          "name": "policyId",
          "type": "uint256"
        }
      ],
      "name": "deactivatePolicy",
      "outputs": [],
      "stateMutability": "nonpayable",
      "type": "function"
    },
    {
      "inputs": [],
      "name": "detach",
      "outputs": [],
      "stateMutability": "nonpayable",
      "type": "function"
    },
    {
      "inputs": [],
      "name": "getAllBucketIds",
      "outputs": [
        {
          "internalType": "uint256[]",
          "name": "",
          "type": "uint256[]"
        }
      ],
      "stateMutability": "view",
      "type": "function"
    },
    {
      "inputs": [
        {
          "internalType": "uint256",
          "name": "policyId",
          "type": "uint256"
        }
      ],
      "name": "getAllowedAddresses",
      "outputs": [
        {
          "internalType": "address[]",
          "name": "",
          "type": "address[]"
        }
      ],
      "stateMutability": "view",
      "type": "function"
    },
    {
      "inputs": [
        {
          "internalType": "uint256",
          "name": "policyId",
          "type": "uint256"
        }
      ],
      "name": "getAllowedCategories",
      "outputs": [
        {
          "internalType": "string[]",
          "name": "",
          "type": "string[]"
        }
      ],
      "stateMutability": "view",
      "type": "function"
    },
    {
      "inputs": [
        {
          "internalType": "uint256",
          "name": "policyId",
          "type": "uint256"
        }
      ],
      "name": "getAllowedColumns",
      "outputs": [
        {
          "internalType": "string[]",
          "name": "",
          "type": "string[]"
        }
      ],
      "stateMutability": "view",
      "type": "function"
    },
    {
      "inputs": [
        {
          "internalType": "address",
          "name": "userAddress",
          "type": "address"
        }
      ],
      "name": "getOwnerBucketIdsByAddress",
      "outputs": [
        {
          "internalType": "uint256[]",
          "name": "",
          "type": "uint256[]"
        }
      ],
      "stateMutability": "view",
      "type": "function"
    },
    {
      "inputs": [],
      "name": "getPolicyIdByOwner",
      "outputs": [
        {
          "internalType": "uint256[]",
          "name": "",
          "type": "uint256[]"
        }
      ],
      "stateMutability": "view",
      "type": "function"
    },
    {
      "inputs": [
        {
          "internalType": "uint256",
          "name": "bucketId",
          "type": "uint256"
        }
      ],
      "name": "getPolicyIds",
      "outputs": [
        {
          "internalType": "uint256[]",
          "name": "",
          "type": "uint256[]"
        }
      ],
      "stateMutability": "view",
      "type": "function"
    },
    {
      "inputs": [
        {
          "internalType": "bytes32",
          "name": "role",
          "type": "bytes32"
        }
      ],
      "name": "getRoleAdmin",
      "outputs": [
        {
          "internalType": "bytes32",
          "name": "",
          "type": "bytes32"
        }
      ],
      "stateMutability": "view",
      "type": "function"
    },
    {
      "inputs": [
        {
          "internalType": "bytes32",
          "name": "role",
          "type": "bytes32"
        },
        {
          "internalType": "address",
          "name": "account",
          "type": "address"
        }
      ],
      "name": "grantRole",
      "outputs": [],
      "stateMutability": "nonpayable",
      "type": "function"
    },
    {
      "inputs": [
        {
          "internalType": "bytes32",
          "name": "role",
          "type": "bytes32"
        },
        {
          "internalType": "address",
          "name": "account",
          "type": "address"
        }
      ],
      "name": "hasRole",
      "outputs": [
        {
          "internalType": "bool",
          "name": "",
          "type": "bool"
        }
      ],
      "stateMutability": "view",
      "type": "function"
    },
    {
      "inputs": [],
      "name": "initialize",
      "outputs": [],
      "stateMutability": "nonpayable",
      "type": "function"
    },
    {
      "inputs": [
        {
          "internalType": "address",
          "name": "a",
          "type": "address"
        }
      ],
      "name": "mainAccount",
      "outputs": [
        {
          "internalType": "address",
          "name": "",
          "type": "address"
        }
      ],
      "stateMutability": "view",
      "type": "function"
    },
    {
      "inputs": [
        {
          "internalType": "address",
          "name": "",
          "type": "address"
        }
      ],
      "name": "mainEoas",
      "outputs": [
        {
          "internalType": "address",
          "name": "",
          "type": "address"
        }
      ],
      "stateMutability": "view",
      "type": "function"
    },
    {
      "inputs": [
        {
          "internalType": "address",
          "name": "",
          "type": "address"
        },
        {
          "internalType": "uint256",
          "name": "",
          "type": "uint256"
        }
      ],
      "name": "ownerBucketIds",
      "outputs": [
        {
          "internalType": "uint256",
          "name": "",
          "type": "uint256"
        }
      ],
      "stateMutability": "view",
      "type": "function"
    },
    {
      "inputs": [
        {
          "internalType": "address",
          "name": "",
          "type": "address"
        },
        {
          "internalType": "uint256",
          "name": "",
          "type": "uint256"
        }
      ],
      "name": "ownerPolicyIds",
      "outputs": [
        {
          "internalType": "uint256",
          "name": "",
          "type": "uint256"
        }
      ],
      "stateMutability": "view",
      "type": "function"
    },
    {
      "inputs": [
        {
          "internalType": "uint256",
          "name": "",
          "type": "uint256"
        }
      ],
      "name": "policies",
      "outputs": [
        {
          "internalType": "uint256",
          "name": "expDate",
          "type": "uint256"
        },
        {
          "internalType": "uint256",
          "name": "price",
          "type": "uint256"
        },
        {
          "internalType": "address",
          "name": "owner",
          "type": "address"
        },
        {
          "internalType": "bool",
          "name": "deactivated",
          "type": "bool"
        }
      ],
      "stateMutability": "view",
      "type": "function"
    },
    {
      "inputs": [
        {
          "internalType": "bytes32",
          "name": "role",
          "type": "bytes32"
        },
        {
          "internalType": "address",
          "name": "account",
          "type": "address"
        }
      ],
      "name": "renounceRole",
      "outputs": [],
      "stateMutability": "nonpayable",
      "type": "function"
    },
    {
      "inputs": [
        {
          "internalType": "bytes32",
          "name": "role",
          "type": "bytes32"
        },
        {
          "internalType": "address",
          "name": "account",
          "type": "address"
        }
      ],
      "name": "revokeRole",
      "outputs": [],
      "stateMutability": "nonpayable",
      "type": "function"
    },
    {
      "inputs": [
        {
          "internalType": "address",
          "name": "dpAddr",
          "type": "address"
        },
        {
          "internalType": "string",
          "name": "category",
          "type": "string"
        }
      ],
      "name": "setDataProvider",
      "outputs": [],
      "stateMutability": "nonpayable",
      "type": "function"
    },
    {
      "inputs": [
        {
          "internalType": "address",
          "name": "dsAddr",
          "type": "address"
        },
        {
          "internalType": "string",
          "name": "category",
          "type": "string"
        }
      ],
      "name": "setDataSeeker",
      "outputs": [],
      "stateMutability": "nonpayable",
      "type": "function"
    },
    {
      "inputs": [
        {
          "internalType": "bytes4",
          "name": "interfaceId",
          "type": "bytes4"
        }
      ],
      "name": "supportsInterface",
      "outputs": [
        {
          "internalType": "bool",
          "name": "",
          "type": "bool"
        }
      ],
      "stateMutability": "view",
      "type": "function"
    }
  ],
  "bytecode": "0x608080604052346100c1576000549060ff8260081c1661006f575060ff80821603610034575b6040516129ba90816100c78239f35b60ff90811916176000557f7f26b83ff96e1f2b6a682f133852f6798a09c465da95921460cefb3847402498602060405160ff8152a138610025565b62461bcd60e51b815260206004820152602760248201527f496e697469616c697a61626c653a20636f6e747261637420697320696e697469604482015266616c697a696e6760c81b6064820152608490fd5b600080fdfe608080604052600436101561001357600080fd5b60003560e01c90816225606f14611e365750806301ffc9a714611de05780630e36345714611d4c578063118f124914611cef5780632124836914611c07578063225435c014611b86578063247ce85b14611a13578063248a9ca3146119e45780632f2ff15d1461193157806336568abe1461189f57806336998de8146114c25780634e3052821461143d5780634e4c3993146113ec5780635773d180146113af5780635efb538a146112e15780636f22aa70146112a6578063780aac031461124c578063796d749b146112175780638129fc1c14611020578063854e7cb314610fa55780638897f04514610ec95780638d8e8e3c14610e7f57806391d1485414610e3257806396c78fb414610d1a5780639b51fb0d14610c8f578063a0f8299414610b86578063a217fddf14610b6a578063afa245b414610b12578063d2c8257a14610950578063d3e89483146108f4578063d547741f146108b3578063de92695a14610831578063ded7f4ae1461077c578063eb4a4645146106fd5763fde37aee1461019f57600080fd5b346105685760c0366003190112610568576024356001600160401b038111610568576101cf90369060040161219b565b6044356001600160401b038111610568576101ee903690600401611ed5565b906064356001600160401b0381116105685761020e90369060040161219b565b91600435600052609b60205260406000209360018060a01b036005860154166106bf57805190600160401b82116104b4578554828755808310610649575b50600086815260208082209392015b82821061056d57505050506001600160401b0381116104b457600160401b81116104b457600184019161029382845481865585612823565b916000526020600020916000905b828210610543578451869086600160401b82116104b45760028301548260028501558083106104ca575b5060200190600283016000526020600020916000905b8282106103d157608435600386015560a435600486015560058501805460ff60a01b1981169091557f977367dcdd13b45f9ddcc1b0b549054231eee20e8e2795185f2448336a194146906103cc9087906001600160a01b036103423361279c565b16809160018060a81b031916176005830155600052609e60205261036c6004356040600020612846565b600560018060a01b03910154166103aa8160405161038981611f9a565b600f81526e027bbb732b91020b2323932b9b99d1608d1b6020820152612901565b6040805160043581526001600160a01b03909216602083015290918291820190565b0390a1005b80518051906001600160401b0382116104b4576103f8826103f28854611f60565b886127de565b602090601f8311600114610444579282600194936020938695600092610439575b5050600019600383901b1c191690841b1787555b019401910190926102e1565b015190508a80610419565b908660005260206000209160005b601f198516811061049c575083602093600196938796938794601f19811610610483575b505050811b01875561042d565b015160001960f88460031b161c191690558a8080610476565b91926020600181928685015181550194019201610452565b634e487b7160e01b600052604160045260246000fd5b600284016000526020600020908382015b81830181106104eb5750506102cb565b806104f860019254611f60565b80610505575b50016104db565b601f90818111841461051e575050600081555b876104fe565b61053a60009284845260208420920160051c82018583016127c7565b81835555610518565b8035916001600160a01b038316830361056857602060019201928186015501906102a1565b600080fd5b80518051906001600160401b0382116104b45761058e826103f28854611f60565b602090601f83116001146105da5792826001949360209386956000926105cf575b5050600019600383901b1c191690841b1787555b0194019101909261025b565b0151905038806105af565b908660005260206000209160005b601f198516811061063157509260209260019592869583601f19811610610618575b505050831b830187556105c3565b015160001960f88460031b161c1916905538808061060a565b919260206001819286850151815501940192016105e8565b866000526020600020908382015b818301811061066757505061024c565b8061067460019254611f60565b80610681575b5001610657565b601f90818111841461069a575050600081555b3861067a565b6106b660009284845260208420920160051c82018583016127c7565b81835555610694565b60405162461bcd60e51b8152602060048201526016602482015275141bdb1a58de48125108185b1c9958591e481d5cd95960521b6044820152606490fd5b34610568576020366003190112610568577fa040c05c2aea9ad7da426cefbf383fc472d4759806d4aa7d1257f00f0faadd01602060043580600052609b82526005604060002001805461076460018060a01b038061075a3361279c565b169083161461287b565b60ff60a01b1916600160a01b179055604051908152a1005b346105685760208060031936011261056857600435600052609b8152600190816040600020019160405191828185549182815201908195600052826000209060005b81811061081557505050836107d4910384611fd0565b60405192818401908285525180915260408401949160005b8281106107f95785870386f35b83516001600160a01b03168752958101959281019284016107ec565b82546001600160a01b03168452928401929185019185016107be565b346105685760208060031936011261056857600435600052609b81526002604060002001805461086081612184565b9161086e6040519384611fd0565b8183526000908152838120938084015b838310610897576040518061089387826120df565b0390f35b60018281926108a589611ff1565b81520196019201919461087e565b34610568576040366003190112610568576108f26004356108d2611e84565b908060005260656020526108ed60016040600020015461245b565b612566565b005b3461056857602036600319011261056857600435600052609b6020526080604060002060ff6003820154916005600482015491015490604051938452602084015260018060a01b038116604084015260a01c1615156060820152f35b34610568576020806003193601126105685760043580600052609c82526040600020541580610ad05750600052609c8152604060002090604051808383829554938481520190600052836000209260005b85828210610aba575050506109b892500383611fd0565b6000805b8351811015610a0f576109cf8185612720565b51600052609b835260ff60056040600020015460a01c16156109fa575b6109f5906126fb565b6109bc565b90610a076109f5916126fb565b9190506109ec565b5091610a1a83612184565b92610a286040519485611fd0565b808452610a37601f1991612184565b01368385013760009060005b8151811015610aac57610a568183612720565b51600052609b845260ff60056040600020015460a01c1615610a81575b610a7c906126fb565b610a43565b91610aa4610a7c91610a938585612720565b51610a9e8289612720565b526126fb565b929050610a73565b604051806108938782611e9a565b85548452600195860195889550930192016109a1565b602492508080610b0a575b50610af557604051906377fb338960e01b82526004820152fd5b6040519063d22f9c3960e01b82526004820152fd5b905083610adb565b3461056857604036600319011261056857610b2b611e6e565b6001600160a01b03166000908152609e602052604090208054602435919082101561056857602091610b5c91611f32565b90546040519160031b1c8152f35b3461056857600036600319011261056857602060405160008152f35b3461056857610b9436612141565b9091610b9e612273565b60018060a01b0316600052602090609a8252604060002091825415610c87575b6001809301936001600160401b0383116104b457610be683610be08754611f60565b876127de565b600091601f8411600114610c245750928293918392600094610c19575b50501b916000199060031b1c1916179055600080f35b013592508580610c03565b9183601f1981168760005284600020946000905b88838310610c6d5750505010610c53575b505050811b019055005b0135600019600384901b60f8161c19169055838080610c49565b868601358855909601959384019387935090810190610c38565b428355610bbe565b3461056857602036600319011261056857600435600052609c602052610ceb6040600020610cbf60018201611ff1565b9060ff610cf96003610cd360028501611ff1565b930154926040519586956080875260808701906120ba565b9085820360208701526120ba565b6001600160a01b038316604085015260a09290921c16151560608301520390f35b3461056857604036600319011261056857600435610d36611e84565b6000828152609b6020526040902060058101546001600160a01b0393919060ff90610d6e86610d643361279c565b168783161461287b565b60a01c16610df55760010180549390600160401b8510156104b45784610dba9160017f9c36476ec530d5b4024edee8143f1fc33550a1ad216d2e678245eb458edcd16c97018155611f32565b815460039190911b83811b19909116928516901b919091179055604080519182526001600160a01b03909216602082015290819081016103cc565b60405162461bcd60e51b8152602060048201526015602482015274141bdb1a58de481a5cc819195858dd1a5d985d1959605a1b6044820152606490fd5b3461056857604036600319011261056857610e4b611e84565b600435600052606560205260406000209060018060a01b0316600052602052602060ff604060002054166040519015158152f35b3461056857604036600319011261056857610e98611e6e565b6001600160a01b03166000908152609d602052604090208054602435919082101561056857602091610b5c91611f32565b3461056857610ed736612141565b9091610ee1612273565b60018060a01b031660005260209060998252604060002091825415610f9d575b6001809301936001600160401b0383116104b457610f2383610be08754611f60565b600091601f8411600114610f555750928293918392600094610c195750501b916000199060031b1c1916179055600080f35b9183601f1981168760005284600020946000905b88838310610f835750505010610c5357505050811b019055005b868601358855909601959384019387935090810190610f69565b428355610f01565b346105685760208060031936011261056857600435600052609b815260406000208054610fd181612184565b91610fdf6040519384611fd0565b8183526000908152838120938084015b838310611004576040518061089387826120df565b600182819261101289611ff1565b815201960192019194610fef565b346105685760003660031901126105685760005460ff8160081c16159081809261120a575b80156111f3575b156111975760ff198181166001176000559082611185575b5060ff60005460081c161561112c57336000908152600080516020612965833981519152602052604090205460ff16156110d8575b506110a057005b61ff0019600054166000557f7f26b83ff96e1f2b6a682f133852f6798a09c465da95921460cefb3847402498602060405160018152a1005b3360008181526000805160206129658339815191526020526040812080549093166001179092559081907f2f8788117e7eff1d82e926ec794901d17c78024a50270940304540a733656f0d8180a481611099565b60405162461bcd60e51b815260206004820152602b60248201527f496e697469616c697a61626c653a20636f6e7472616374206973206e6f74206960448201526a6e697469616c697a696e6760a81b6064820152608490fd5b61ffff19166101011760005582611064565b60405162461bcd60e51b815260206004820152602e60248201527f496e697469616c697a61626c653a20636f6e747261637420697320616c72656160448201526d191e481a5b9a5d1a585b1a5e995960921b6064820152608490fd5b50303b15801561104c5750600160ff82161461104c565b50600160ff821610611045565b3461056857602036600319011261056857602061123a611235611e6e565b61279c565b6040516001600160a01b039091168152f35b34610568576020366003190112610568576001600160a01b0361126d611e6e565b1660005260996020526040600020611289600182549201611ff1565b9061089360405192839283526040602084015260408301906120ba565b346105685760203660031901126105685760206001600160a01b03806112ca611e6e565b166000526098825260406000205416604051908152f35b34610568576040366003190112610568576004356000818152609c602052604090206003810154602435929060ff9061132f6001600160a01b03806113253361279c565b16908316146128be565b60a01c1661137257826113657f97fd0f78540a5bcd5a6b6af3e260ab088b75e70678c3768ba048e94d701531b394604094612846565b82519182526020820152a1005b60405162461bcd60e51b8152602060048201526015602482015274109d58dad95d081a5cc819195858dd1a5d985d1959605a1b6044820152606490fd5b34610568576020366003190112610568576001600160a01b036113d0611e6e565b16600052609a6020526040600020611289600182549201611ff1565b3461056857602036600319011261056857600435609f5481101561056857609f6000527f0bc14066c33013fe88f66e314e4cf150b0b2d4d6451a1a51dbbd1c27cd11de280154604051908152602090f35b3461056857600036600319011261056857604051609f80548083526000918252602080840193927f0bc14066c33013fe88f66e314e4cf150b0b2d4d6451a1a51dbbd1c27cd11de2892915b8282106114ab576108938561149f81890382611fd0565b60405191829182611e9a565b835486529485019460019384019390910190611488565b34610568576080366003190112610568576001600160401b0360043560248035838111610568576114f7903690600401611ed5565b91909360443581811161056857611512903690600401611f05565b6064939193358381116105685761152d903690600401611f05565b87600095929552602094609c86526040600020600381019760018060a01b03998a8a54166118625785811161184d57600160401b9c8d82116118265761157882855481875586612823565b836000528960002060005b83811061183b575050505060019586830191868211611826576115b0826115aa8554611f60565b856127de565b600090601f83116001146117ba57600294939291600091836117af575b5050600019600383901b1c191690881b1790555b0192821161179a5781906115ff826115f98654611f60565b866127de565b600090601f83116001146117375760009261172c575b5050600019600383901b1c191690831b1790555b846116333361279c565b85546001600160a01b0319169116908117855560405161168290829061165881611f9a565b6019815278027bbb732b91020b2323932b9b99030b232213ab1b5b2ba1d1603d1b87820152612901565b600052609d8352611697866040600020612846565b609f549687101561171757860180609f558610156117035750609f6000908152209390930182905591546040805192835292166001600160a01b031660208201527fe737a3ee8520887c4018b97f640958f8a2ad13444ab4ff075956b54ca125168491819081016103cc565b634e487b7160e01b60009081526032600452fd5b50634e487b7160e01b60009081526041600452fd5b013590508a80611615565b859350601f1983169185600052886000209260005b8a828210611784575050841161176a575b505050811b019055611629565b0135600019600384901b60f8161c191690558a808061175d565b838501358655899790950194928301920161174c565b84634e487b7160e01b60005260416004526000fd5b013590508f806115cd565b918891949392601f19821690846000528c600020918d6000905b82821061180f5750509683600298106117f5575b505050811b0190556115e1565b0135600019600384901b60f8161c191690558f80806117e8565b838a01358555988901988d9690940193018e6117d4565b88634e487b7160e01b60005260416004526000fd5b823582820155918b0191600101611583565b87634e487b7160e01b60005260416004526000fd5b60405162461bcd60e51b8152600481018a90526016818a015275109d58dad95d08125108185b1c9958591e481d5cd95960521b6044820152606490fd5b34610568576040366003190112610568576118b8611e84565b336001600160a01b038216036118d4576108f290600435612566565b60405162461bcd60e51b815260206004820152602f60248201527f416363657373436f6e74726f6c3a2063616e206f6e6c792072656e6f756e636560448201526e103937b632b9903337b91039b2b63360891b6064820152608490fd5b346105685760403660031901126105685760043561194d611e84565b81600052606560205261196760016040600020015461245b565b81600052606560205260406000209060018060a01b0316908160005260205260ff604060002054161561199657005b8160005260656020526040600020816000526020526040600020600160ff1982541617905533917f2f8788117e7eff1d82e926ec794901d17c78024a50270940304540a733656f0d600080a4005b346105685760203660031901126105685760043560005260656020526020600160406000200154604051908152f35b346105685760208060031936011261056857611a2d611e6e565b3360009081526097835260409020546001600160a01b0391908216611b4b57811690816000526098835260406000205416611b1157803314611acc577f926f98e4b543897a75b3e34b7494ba68a47829d3aa39ffd9c478ccc51bfbfb449160409133600052609782528260002060018060a01b0319908282825416179055816000526098835283600020903390825416179055825191338352820152a1005b60405162461bcd60e51b815260048101839052601f60248201527f4d61696e20616e64204150492063616e6e6f74206265207468652073616d65006044820152606490fd5b60405162461bcd60e51b815260048101839052601260248201527110541248185b1c9958591e48189bdb99195960721b6044820152606490fd5b60405162461bcd60e51b815260048101849052601360248201527213585a5b88185b1c9958591e48189bdb991959606a1b6044820152606490fd5b346105685760003660031901126105685733600081815260976020818152604080842080546001600160a01b031685526098835281852080546001600160a01b031990811690915594869052928252825490931690915590519182527fc4334c4bd536e76bf4341972a09af796d8fd3c7336b1a827427f6c0b52b6620291a1005b3461056857600036600319011261056857611c213361279c565b60405190611c2e82611f9a565b60198252611c5f8160209378027bbb732b91020b2323932b9b99033b2ba2837b634b1bc9d1603d1b85820152612901565b6040516001600160a01b03821691611c9a9190611c92908290611c8490878301612734565b03601f198101835282611fd0565b821515612770565b600052609e8152604060002090604051908181845491828152019360005281600020916000905b828210611cd8576108938561149f81890382611fd0565b835486529485019460019384019390910190611cc1565b34610568576020366003190112610568577f3002681acd76b745f42970dd6c00cd7a2f96c2de284fdfd06e0f8fb11296f650602060043580600052609c82526003604060002001805461076460018060a01b03806113253361279c565b346105685760208060031936011261056857611d66611e6e565b6040516001600160a01b03821691611d8b9190611c92908290611c8490878301612734565b600052609d8152604060002090604051908181845491828152019360005281600020916000905b828210611dc9576108938561149f81890382611fd0565b835486529485019460019384019390910190611db2565b346105685760203660031901126105685760043563ffffffff60e01b811680910361056857602090637965db0b60e01b8114908115611e25575b506040519015158152f35b6301ffc9a760e01b14905082611e1a565b34610568576020366003190112610568576020906001600160a01b0380611e5b611e6e565b1660005260978352604060002054168152f35b600435906001600160a01b038216820361056857565b602435906001600160a01b038216820361056857565b6020908160408183019282815285518094520193019160005b828110611ec1575050505090565b835185529381019392810192600101611eb3565b9181601f84011215610568578235916001600160401b038311610568576020808501948460051b01011161056857565b9181601f84011215610568578235916001600160401b038311610568576020838186019501011161056857565b8054821015611f4a5760005260206000200190600090565b634e487b7160e01b600052603260045260246000fd5b90600182811c92168015611f90575b6020831014611f7a57565b634e487b7160e01b600052602260045260246000fd5b91607f1691611f6f565b604081019081106001600160401b038211176104b457604052565b608081019081106001600160401b038211176104b457604052565b90601f801991011681019081106001600160401b038211176104b457604052565b906040519182600082549261200584611f60565b9081845260019485811690816000146120745750600114612031575b505061202f92500383611fd0565b565b9093915060005260209081600020936000915b81831061205c57505061202f93508201013880612021565b85548884018501529485019487945091830191612044565b91505061202f94506020925060ff191682840152151560051b8201013880612021565b60005b8381106120aa5750506000910152565b818101518382015260200161209a565b906020916120d381518092818552858086019101612097565b601f01601f1916010190565b602080820190808352835180925260408301928160408460051b8301019501936000915b8483106121135750505050505090565b9091929394958480612131600193603f198682030187528a516120ba565b9801930193019194939290612103565b906040600319830112610568576004356001600160a01b03811681036105685791602435906001600160401b0382116105685761218091600401611f05565b9091565b6001600160401b0381116104b45760051b60200190565b90601f818184011215610568578235926121b484612184565b936040926121c484519687611fd0565b818652602094858088019360051b8501019481861161056857868501935b8685106121f457505050505050505090565b6001600160401b039085358281116105685787019084603f83011215610568578982013592831161225e578351612233848801601f19168c0182611fd0565b838152858585850101116105685760008b8581968883970183860137830101528152019401936121e2565b60246000634e487b7160e01b81526041600452fd5b336000908152600080516020612965833981519152602090815260408083205490929060ff16156122a357505050565b6122ac336125ed565b90808451906122ba82611fb5565b6042825284820192606036853782511561244757603084538251906001918210156124475790607860218501536041915b8183116123d95750505061239757604861239393869361237793612368985198899376020b1b1b2b9b9a1b7b73a3937b61d1030b1b1b7bab73a1604d1b8a86015261233f815180928c603789019101612097565b8401917001034b99036b4b9b9b4b733903937b6329607d1b603784015251809386840190612097565b01036028810187520185611fd0565b5192839262461bcd60e51b8452600484015260248301906120ba565b0390fd5b60648486519062461bcd60e51b825280600483015260248201527f537472696e67733a20686578206c656e67746820696e73756666696369656e746044820152fd5b909192600f81166010811015612433576f181899199a1a9b1b9c1cb0b131b232b360811b901a61240985876125dc565b5360041c92801561241f576000190191906122eb565b634e487b7160e01b82526011600452602482fd5b634e487b7160e01b83526032600452602483fd5b634e487b7160e01b81526032600452602490fd5b60009080825260209060658252604092838120338252835260ff8482205416156124855750505050565b61248e336125ed565b9184519061249b82611fb5565b6042825284820192606036853782511561244757603084538251906001918210156124475790607860218501536041915b8183116125205750505061239757604861239393869361237793612368985198899376020b1b1b2b9b9a1b7b73a3937b61d1030b1b1b7bab73a1604d1b8a86015261233f815180928c603789019101612097565b909192600f81166010811015612433576f181899199a1a9b1b9c1cb0b131b232b360811b901a61255085876125dc565b5360041c92801561241f576000190191906124cc565b906000918083526065602052604083209160018060a01b03169182845260205260ff60408420541661259757505050565b8083526065602052604083208284526020526040832060ff1981541690557ff6391f5c32d9c69d2a47ea670b442974b53935d1edc7fd64eb21e047a839171b339380a4565b908151811015611f4a570160200190565b60405190606082018281106001600160401b038211176104b457604052602a8252602082016040368237825115611f4a57603090538151600190811015611f4a57607860218401536029905b80821161268d5750506126495790565b606460405162461bcd60e51b815260206004820152602060248201527f537472696e67733a20686578206c656e67746820696e73756666696369656e746044820152fd5b9091600f811660108110156126e6576f181899199a1a9b1b9c1cb0b131b232b360811b901a6126bc84866125dc565b5360041c9180156126d1576000190190612639565b60246000634e487b7160e01b81526011600452fd5b60246000634e487b7160e01b81526032600452fd5b600019811461270a5760010190565b634e487b7160e01b600052601160045260246000fd5b8051821015611f4a5760209160051b010190565b602b9176024b73b30b634b21037bbb732b91030b2323932b9b99d1604d1b82526bffffffffffffffffffffffff199060601b1660178201520190565b156127785750565b60405162461bcd60e51b8152602060048201529081906123939060248301906120ba565b6001600160a01b03818116600090815260986020526040902054169081156127c2575090565b905090565b8181106127d2575050565b600081556001016127c7565b9190601f81116127ed57505050565b61202f926000526020600020906020601f840160051c83019310612819575b601f0160051c01906127c7565b909150819061280c565b9181811061283057505050565b61202f92600052602060002091820191016127c7565b8054600160401b8110156104b45761286391600182018155611f32565b819291549060031b91821b91600019901b1916179055565b1561288257565b60405162461bcd60e51b81526020600482015260146024820152732737ba103a3432903837b634b1bc9037bbb732b960611b6044820152606490fd5b156128c557565b60405162461bcd60e51b81526020600482015260146024820152732737ba103a343290313ab1b5b2ba1037bbb732b960611b6044820152606490fd5b6000919082916129516040518092612932602083019563319af33360e01b87526040602485015260648401906120ba565b6001600160a01b0391909116604483015203601f198101835282611fd0565b51906a636f6e736f6c652e6c6f675afa5056feffdfc1249c027f9191656349feb0761381bb32c9f557e01f419fd08754bf5a1ba26469706673582212201b54194236da1617b17e7bb1f14a916e84cca0fd7f1cb093e43018cd11ee079764736f6c63430008130033",
  "linkReferences": {},
  "deployedLinkReferences": {}
}