{
  "_format": "hh-sol-artifact-1",
  "contractName": "EoaBond",
  "sourceName": "contracts/EoaBond.sol",
  "abi": [
    {
      "inputs": [],
      "stateMutability": "nonpayable",
      "type": "constructor"
    },
    {
      "inputs": [
        {
          "internalType": "uint256",
          "name": "bucketId",
          "type": "uint256"
        }
      ],
      "name": "BucketNotFound",
      "type": "error"
    },
    {
      "inputs": [
        {
          "internalType": "uint256",
          "name": "bucketId",
          "type": "uint256"
        }
      ],
      "name": "NoPolicyIdsInBucket",
      "type": "error"
    },
    {
      "anonymous": false,
      "inputs": [
        {
          "indexed": false,
          "internalType": "uint256",
          "name": "policyId",
          "type": "uint256"
        },
        {
          "indexed": false,
          "internalType": "address",
          "name": "allowedAddress",
          "type": "address"
        }
      ],
      "name": "AddressAddedToPolicy",
      "type": "event"
    },
    {
      "anonymous": false,
      "inputs": [
        {
          "indexed": false,
          "internalType": "address",
          "name": "mainEoa",
          "type": "address"
        },
        {
          "indexed": false,
          "internalType": "address",
          "name": "apiEoa",
          "type": "address"
        }
      ],
      "name": "Bond",
      "type": "event"
    },
    {
      "anonymous": false,
      "inputs": [
        {
          "indexed": false,
          "internalType": "uint256",
          "name": "bucketId",
          "type": "uint256"
        },
        {
          "indexed": false,
          "internalType": "address",
          "name": "owner",
          "type": "address"
        }
      ],
      "name": "BucketAdded",
      "type": "event"
    },
    {
      "anonymous": false,
      "inputs": [
        {
          "indexed": false,
          "internalType": "uint256",
          "name": "bucketId",
          "type": "uint256"
        }
      ],
      "name": "BucketDeactivated",
      "type": "event"
    },
    {
      "anonymous": false,
      "inputs": [
        {
          "indexed": true,
          "internalType": "address",
          "name": "owner",
          "type": "address"
        },
        {
          "indexed": false,
          "internalType": "uint256[]",
          "name": "policyId",
          "type": "uint256[]"
        }
      ],
      "name": "Debug",
      "type": "event"
    },
    {
      "anonymous": false,
      "inputs": [
        {
          "indexed": false,
          "internalType": "address",
          "name": "mainEoa",
          "type": "address"
        }
      ],
      "name": "Detach",
      "type": "event"
    },
    {
      "anonymous": false,
      "inputs": [
        {
          "indexed": false,
          "internalType": "uint8",
          "name": "version",
          "type": "uint8"
        }
      ],
      "name": "Initialized",
      "type": "event"
    },
    {
      "anonymous": false,
      "inputs": [
        {
          "indexed": false,
          "internalType": "uint256",
          "name": "policyId",
          "type": "uint256"
        },
        {
          "indexed": false,
          "internalType": "address",
          "name": "owner",
          "type": "address"
        }
      ],
      "name": "PolicyAdded",
      "type": "event"
    },
    {
      "anonymous": false,
      "inputs": [
        {
          "indexed": false,
          "internalType": "uint256",
          "name": "bucketId",
          "type": "uint256"
        },
        {
          "indexed": false,
          "internalType": "uint256",
          "name": "policyId",
          "type": "uint256"
        }
      ],
      "name": "PolicyAddedToBucket",
      "type": "event"
    },
    {
      "anonymous": false,
      "inputs": [
        {
          "indexed": false,
          "internalType": "uint256",
          "name": "policyId",
          "type": "uint256"
        }
      ],
      "name": "PolicyDeactivated",
      "type": "event"
    },
    {
      "anonymous": false,
      "inputs": [
        {
          "indexed": false,
          "internalType": "uint256",
          "name": "policyId",
          "type": "uint256"
        },
        {
          "indexed": false,
          "internalType": "string[]",
          "name": "operations",
          "type": "string[]"
        }
      ],
      "name": "PolicyIdentityDisclosureOperationsUpdated",
      "type": "event"
    },
    {
      "anonymous": false,
      "inputs": [
        {
          "indexed": true,
          "internalType": "bytes32",
          "name": "role",
          "type": "bytes32"
        },
        {
          "indexed": true,
          "internalType": "bytes32",
          "name": "previousAdminRole",
          "type": "bytes32"
        },
        {
          "indexed": true,
          "internalType": "bytes32",
          "name": "newAdminRole",
          "type": "bytes32"
        }
      ],
      "name": "RoleAdminChanged",
      "type": "event"
    },
    {
      "anonymous": false,
      "inputs": [
        {
          "indexed": true,
          "internalType": "bytes32",
          "name": "role",
          "type": "bytes32"
        },
        {
          "indexed": true,
          "internalType": "address",
          "name": "account",
          "type": "address"
        },
        {
          "indexed": true,
          "internalType": "address",
          "name": "sender",
          "type": "address"
        }
      ],
      "name": "RoleGranted",
      "type": "event"
    },
    {
      "anonymous": false,
      "inputs": [
        {
          "indexed": true,
          "internalType": "bytes32",
          "name": "role",
          "type": "bytes32"
        },
        {
          "indexed": true,
          "internalType": "address",
          "name": "account",
          "type": "address"
        },
        {
          "indexed": true,
          "internalType": "address",
          "name": "sender",
          "type": "address"
        }
      ],
      "name": "RoleRevoked",
      "type": "event"
    },
    {
      "inputs": [],
      "name": "DEFAULT_ADMIN_ROLE",
      "outputs": [
        {
          "internalType": "bytes32",
          "name": "",
          "type": "bytes32"
        }
      ],
      "stateMutability": "view",
      "type": "function"
    },
    {
      "inputs": [
        {
          "internalType": "uint256",
          "name": "policyId",
          "type": "uint256"
        },
        {
          "internalType": "address",
          "name": "allowedAddress",
          "type": "address"
        }
      ],
      "name": "addAllowedAddressToPolicy",
      "outputs": [],
      "stateMutability": "nonpayable",
      "type": "function"
    },
    {
      "inputs": [
        {
          "internalType": "uint256",
          "name": "bucketId",
          "type": "uint256"
        },
        {
          "internalType": "uint256[]",
          "name": "policyIds",
          "type": "uint256[]"
        },
        {
          "internalType": "bool[]",
          "name": "useAllowlists",
          "type": "bool[]"
        },
        {
          "internalType": "string",
          "name": "dataFormat",
          "type": "string"
        },
        {
          "internalType": "string",
          "name": "nodeAddress",
          "type": "string"
        }
      ],
      "name": "addBucket",
      "outputs": [],
      "stateMutability": "nonpayable",
      "type": "function"
    },
    {
      "inputs": [
        {
          "internalType": "uint256",
          "name": "policyId",
          "type": "uint256"
        },
        {
          "internalType": "string[]",
          "name": "allowedCategories",
          "type": "string[]"
        },
        {
          "internalType": "address[]",
          "name": "allowedAddresses",
          "type": "address[]"
        },
        {
          "internalType": "string[]",
          "name": "allowedColumns",
          "type": "string[]"
        },
        {
          "internalType": "uint256",
          "name": "expDate",
          "type": "uint256"
        },
        {
          "internalType": "uint256",
          "name": "price",
          "type": "uint256"
        },
        {
          "internalType": "string[]",
          "name": "identityDisclosureOperations",
          "type": "string[]"
        }
      ],
      "name": "addPolicy",
      "outputs": [],
      "stateMutability": "nonpayable",
      "type": "function"
    },
    {
      "inputs": [
        {
          "internalType": "uint256",
          "name": "policyId",
          "type": "uint256"
        },
        {
          "internalType": "string[]",
          "name": "allowedCategories",
          "type": "string[]"
        },
        {
          "internalType": "address[]",
          "name": "allowedAddresses",
          "type": "address[]"
        },
        {
          "internalType": "string[]",
          "name": "allowedColumns",
          "type": "string[]"
        },
        {
          "internalType": "uint256",
          "name": "expDate",
          "type": "uint256"
        },
        {
          "internalType": "uint256",
          "name": "price",
          "type": "uint256"
        }
      ],
      "name": "addPolicy",
      "outputs": [],
      "stateMutability": "nonpayable",
      "type": "function"
    },
    {
      "inputs": [
        {
          "internalType": "uint256",
          "name": "bucketId",
          "type": "uint256"
        },
        {
          "internalType": "uint256",
          "name": "policyId",
          "type": "uint256"
        }
      ],
      "name": "addPolicyToBucket",
      "outputs": [],
      "stateMutability": "nonpayable",
      "type": "function"
    },
    {
      "inputs": [
        {
          "internalType": "uint256",
          "name": "",
          "type": "uint256"
        }
      ],
      "name": "allBucketIds",
      "outputs": [
        {
          "internalType": "uint256",
          "name": "",
          "type": "uint256"
        }
      ],
      "stateMutability": "view",
      "type": "function"
    },
    {
      "inputs": [
        {
          "internalType": "address",
          "name": "",
          "type": "address"
        }
      ],
      "name": "apiEoas",
      "outputs": [
        {
          "internalType": "address",
          "name": "",
          "type": "address"
        }
      ],
      "stateMutability": "view",
      "type": "function"
    },
    {
      "inputs": [
        {
          "internalType": "address",
          "name": "apiEoa",
          "type": "address"
        }
      ],
      "name": "bond",
      "outputs": [],
      "stateMutability": "nonpayable",
      "type": "function"
    },
    {
      "inputs": [
        {
          "internalType": "uint256",
          "name": "",
          "type": "uint256"
        }
      ],
      "name": "buckets",
      "outputs": [
        {
          "internalType": "string",
          "name": "dataFormat",
          "type": "string"
        },
        {
          "internalType": "string",
          "name": "nodeAddress",
          "type": "string"
        },
        {
          "internalType": "address",
          "name": "owner",
          "type": "address"
        },
        {
          "internalType": "bool",
          "name": "deactivated",
          "type": "bool"
        }
      ],
      "stateMutability": "view",
      "type": "function"
    },
    {
      "inputs": [
        {
          "internalType": "address",
          "name": "",
          "type": "address"
        }
      ],
      "name": "dataProviders",
      "outputs": [
        {
          "internalType": "uint256",
          "name": "joinDate",
          "type": "uint256"
        },
        {
          "internalType": "string",
          "name": "category",
          "type": "string"
        }
      ],
      "stateMutability": "view",
      "type": "function"
    },
    {
      "inputs": [
        {
          "internalType": "address",
          "name": "",
          "type": "address"
        }
      ],
      "name": "dataSeekers",
      "outputs": [
        {
          "internalType": "uint256",
          "name": "joinDate",
          "type": "uint256"
        },
        {
          "internalType": "string",
          "name": "category",
          "type": "string"
        }
      ],
      "stateMutability": "view",
      "type": "function"
    },
    {
      "inputs": [
        {
          "internalType": "uint256",
          "name": "bucketId",
          "type": "uint256"
        }
      ],
      "name": "deactivateBucket",
      "outputs": [],
      "stateMutability": "nonpayable",
      "type": "function"
    },
    {
      "inputs": [
        {
          "internalType": "uint256",
          "name": "policyId",
          "type": "uint256"
        }
      ],
      "name": "deactivatePolicy",
      "outputs": [],
      "stateMutability": "nonpayable",
      "type": "function"
    },
    {
      "inputs": [],
      "name": "detach",
      "outputs": [],
      "stateMutability": "nonpayable",
      "type": "function"
    },
    {
      "inputs": [],
      "name": "getAllBucketIds",
      "outputs": [
        {
          "internalType": "uint256[]",
          "name": "",
          "type": "uint256[]"
        }
      ],
      "stateMutability": "view",
      "type": "function"
    },
    {
      "inputs": [],
      "name": "getAllBucketIdsByOwner",
      "outputs": [
        {
          "internalType": "uint256[]",
          "name": "",
          "type": "uint256[]"
        }
      ],
      "stateMutability": "view",
      "type": "function"
    },
    {
      "inputs": [
        {
          "internalType": "uint256",
          "name": "policyId",
          "type": "uint256"
        }
      ],
      "name": "getAllowedAddresses",
      "outputs": [
        {
          "internalType": "address[]",
          "name": "",
          "type": "address[]"
        }
      ],
      "stateMutability": "view",
      "type": "function"
    },
    {
      "inputs": [
        {
          "internalType": "uint256",
          "name": "policyId",
          "type": "uint256"
        }
      ],
      "name": "getAllowedCategories",
      "outputs": [
        {
          "internalType": "string[]",
          "name": "",
          "type": "string[]"
        }
      ],
      "stateMutability": "view",
      "type": "function"
    },
    {
      "inputs": [
        {
          "internalType": "uint256",
          "name": "policyId",
          "type": "uint256"
        }
      ],
      "name": "getAllowedColumns",
      "outputs": [
        {
          "internalType": "string[]",
          "name": "",
          "type": "string[]"
        }
      ],
      "stateMutability": "view",
      "type": "function"
    },
    {
      "inputs": [
        {
          "internalType": "uint256",
          "name": "policyId",
          "type": "uint256"
        }
      ],
      "name": "getIdentityDisclosureOperations",
      "outputs": [
        {
          "internalType": "string[]",
          "name": "",
          "type": "string[]"
        }
      ],
      "stateMutability": "view",
      "type": "function"
    },
    {
      "inputs": [
        {
          "internalType": "address",
          "name": "userAddress",
          "type": "address"
        }
      ],
      "name": "getOwnerBucketIdsByAddress",
      "outputs": [
        {
          "internalType": "uint256[]",
          "name": "",
          "type": "uint256[]"
        }
      ],
      "stateMutability": "view",
      "type": "function"
    },
    {
      "inputs": [],
      "name": "getPolicyIdByOwner",
      "outputs": [
        {
          "internalType": "uint256[]",
          "name": "",
          "type": "uint256[]"
        }
      ],
      "stateMutability": "view",
      "type": "function"
    },
    {
      "inputs": [
        {
          "internalType": "uint256",
          "name": "bucketId",
          "type": "uint256"
        }
      ],
      "name": "getPolicyIds",
      "outputs": [
        {
          "internalType": "uint256[]",
          "name": "",
          "type": "uint256[]"
        }
      ],
      "stateMutability": "view",
      "type": "function"
    },
    {
      "inputs": [
        {
          "internalType": "bytes32",
          "name": "role",
          "type": "bytes32"
        }
      ],
      "name": "getRoleAdmin",
      "outputs": [
        {
          "internalType": "bytes32",
          "name": "",
          "type": "bytes32"
        }
      ],
      "stateMutability": "view",
      "type": "function"
    },
    {
      "inputs": [
        {
          "internalType": "uint256",
          "name": "bucketId",
          "type": "uint256"
        }
      ],
      "name": "getUseAllowlists",
      "outputs": [
        {
          "internalType": "bool[]",
          "name": "",
          "type": "bool[]"
        }
      ],
      "stateMutability": "view",
      "type": "function"
    },
    {
      "inputs": [
        {
          "internalType": "bytes32",
          "name": "role",
          "type": "bytes32"
        },
        {
          "internalType": "address",
          "name": "account",
          "type": "address"
        }
      ],
      "name": "grantRole",
      "outputs": [],
      "stateMutability": "nonpayable",
      "type": "function"
    },
    {
      "inputs": [
        {
          "internalType": "bytes32",
          "name": "role",
          "type": "bytes32"
        },
        {
          "internalType": "address",
          "name": "account",
          "type": "address"
        }
      ],
      "name": "hasRole",
      "outputs": [
        {
          "internalType": "bool",
          "name": "",
          "type": "bool"
        }
      ],
      "stateMutability": "view",
      "type": "function"
    },
    {
      "inputs": [],
      "name": "initialize",
      "outputs": [],
      "stateMutability": "nonpayable",
      "type": "function"
    },
    {
      "inputs": [
        {
          "internalType": "uint256",
          "name": "policyId",
          "type": "uint256"
        },
        {
          "internalType": "string",
          "name": "operation",
          "type": "string"
        }
      ],
      "name": "isOperationAllowedForDisclosure",
      "outputs": [
        {
          "internalType": "bool",
          "name": "",
          "type": "bool"
        }
      ],
      "stateMutability": "view",
      "type": "function"
    },
    {
      "inputs": [
        {
          "internalType": "address",
          "name": "a",
          "type": "address"
        }
      ],
      "name": "mainAccount",
      "outputs": [
        {
          "internalType": "address",
          "name": "",
          "type": "address"
        }
      ],
      "stateMutability": "view",
      "type": "function"
    },
    {
      "inputs": [
        {
          "internalType": "address",
          "name": "",
          "type": "address"
        }
      ],
      "name": "mainEoas",
      "outputs": [
        {
          "internalType": "address",
          "name": "",
          "type": "address"
        }
      ],
      "stateMutability": "view",
      "type": "function"
    },
    {
      "inputs": [
        {
          "internalType": "address",
          "name": "",
          "type": "address"
        },
        {
          "internalType": "uint256",
          "name": "",
          "type": "uint256"
        }
      ],
      "name": "ownerBucketIds",
      "outputs": [
        {
          "internalType": "uint256",
          "name": "",
          "type": "uint256"
        }
      ],
      "stateMutability": "view",
      "type": "function"
    },
    {
      "inputs": [
        {
          "internalType": "address",
          "name": "",
          "type": "address"
        },
        {
          "internalType": "uint256",
          "name": "",
          "type": "uint256"
        }
      ],
      "name": "ownerPolicyIds",
      "outputs": [
        {
          "internalType": "uint256",
          "name": "",
          "type": "uint256"
        }
      ],
      "stateMutability": "view",
      "type": "function"
    },
    {
      "inputs": [
        {
          "internalType": "uint256",
          "name": "",
          "type": "uint256"
        }
      ],
      "name": "policies",
      "outputs": [
        {
          "internalType": "uint256",
          "name": "expDate",
          "type": "uint256"
        },
        {
          "internalType": "uint256",
          "name": "price",
          "type": "uint256"
        },
        {
          "internalType": "address",
          "name": "owner",
          "type": "address"
        },
        {
          "internalType": "bool",
          "name": "deactivated",
          "type": "bool"
        }
      ],
      "stateMutability": "view",
      "type": "function"
    },
    {
      "inputs": [
        {
          "internalType": "bytes32",
          "name": "role",
          "type": "bytes32"
        },
        {
          "internalType": "address",
          "name": "account",
          "type": "address"
        }
      ],
      "name": "renounceRole",
      "outputs": [],
      "stateMutability": "nonpayable",
      "type": "function"
    },
    {
      "inputs": [
        {
          "internalType": "bytes32",
          "name": "role",
          "type": "bytes32"
        },
        {
          "internalType": "address",
          "name": "account",
          "type": "address"
        }
      ],
      "name": "revokeRole",
      "outputs": [],
      "stateMutability": "nonpayable",
      "type": "function"
    },
    {
      "inputs": [
        {
          "internalType": "address",
          "name": "dpAddr",
          "type": "address"
        },
        {
          "internalType": "string",
          "name": "category",
          "type": "string"
        }
      ],
      "name": "setDataProvider",
      "outputs": [],
      "stateMutability": "nonpayable",
      "type": "function"
    },
    {
      "inputs": [
        {
          "internalType": "address",
          "name": "dsAddr",
          "type": "address"
        },
        {
          "internalType": "string",
          "name": "category",
          "type": "string"
        }
      ],
      "name": "setDataSeeker",
      "outputs": [],
      "stateMutability": "nonpayable",
      "type": "function"
    },
    {
      "inputs": [
        {
          "internalType": "uint256",
          "name": "policyId",
          "type": "uint256"
        },
        {
          "internalType": "string[]",
          "name": "operations",
          "type": "string[]"
        }
      ],
      "name": "setIdentityDisclosureOperations",
      "outputs": [],
      "stateMutability": "nonpayable",
      "type": "function"
    },
    {
      "inputs": [
        {
          "internalType": "bytes4",
          "name": "interfaceId",
          "type": "bytes4"
        }
      ],
      "name": "supportsInterface",
      "outputs": [
        {
          "internalType": "bool",
          "name": "",
          "type": "bool"
        }
      ],
      "stateMutability": "view",
      "type": "function"
    }
  ],
  "bytecode": "0x60808060405234620000c6576000549060ff8260081c1662000074575060ff8082160362000038575b604051613a409081620000cc8239f35b60ff90811916176000557f7f26b83ff96e1f2b6a682f133852f6798a09c465da95921460cefb3847402498602060405160ff8152a13862000028565b62461bcd60e51b815260206004820152602760248201527f496e697469616c697a61626c653a20636f6e747261637420697320696e697469604482015266616c697a696e6760c81b6064820152608490fd5b600080fdfe608080604052600436101561001357600080fd5b60e0600035811c91826225606f146126025750816301ffc9a7146125ac5781630e363457146125185781630ecfc8d414611ff4578163118f124914611f975781632124836914611efb578163225435c014611e7a578163247ce85b14611d07578163248a9ca314611cd857816327f9c82214611c915781632f2ff15d14611bde57816336568abe14611b4c5781634e30528214611ae55781634e4c399314611aa65781635773d18014611a695781635efb538a1461199d5781636d73b7cd146116d45781636f22aa7014611699578163780aac031461163f578163796d749b1461160a5781638129fc1c14611413578163854e7cb3146113905781638897f045146112b45781638d8e8e3c1461126a57816391d148541461121d57816393f3e0351461119157816396c78fb4146110785781639b51fb0d14610fed578163a0f8299414610ee4578163a217fddf14610ec8578163afa245b414610e70578163c783e46e146107f557508063cb25b7111461076f578063d2c8257a146105ad578063d3e8948314610551578063d547741f14610512578063de37ce9e1461044f578063de92695a146103c5578063ded7f4ae14610310578063eb4a4645146102915763fde37aee146101e357600080fd5b3461028c5760c036600319011261028c576001600160401b0360243581811161028c57610214903690600401612902565b60443582811161028c5761022c9036906004016126a1565b9160643584811161028c57610245903690600401612902565b6040519360208501958587109087111761027657610274956040526000855260a435936084359360043561314a565b005b634e487b7160e01b600052604160045260246000fd5b600080fd5b3461028c57602036600319011261028c577fa040c05c2aea9ad7da426cefbf383fc472d4759806d4aa7d1257f00f0faadd01602060043580600052609b8252600560406000200180546102f860018060a01b03806102ee3361302b565b16908316146138e1565b60ff60a01b1916600160a01b179055604051908152a1005b3461028c5760208060031936011261028c57600435600052609b8152600190816040600020019160405191828185549182815201908195600052826000209060005b8181106103a95750505083610368910384612734565b60405192818401908285525180915260408401949160005b82811061038d5785870386f35b83516001600160a01b0316875295810195928101928401610380565b82546001600160a01b0316845292840192918501918501610352565b3461028c5760208060031936011261028c57600435600052609b815260026040600020019081546103f5816128eb565b926104036040519485612734565b8184526000908152828120838086015b848410610431576040518281528061042d8185018a612982565b0390f35b600191829161043f856127fd565b8152019201920191908490610413565b3461028c57600036600319011261028c576104693361302b565b61047a81610475612ee2565b613967565b60018060a01b0381166104b16040516104a98161049b602096878301612f17565b03601f198101835282612734565b821515612f53565b600052609d8152604060002090604051908181845491828152019360005281600020916000905b8282106104fb5761042d856104ef81890382612734565b60405191829182612666565b8354865294850194600193840193909101906104d8565b3461028c57604036600319011261028c57610274600435610531612650565b9080600052606560205261054c600160406000200154612c09565b612d14565b3461028c57602036600319011261028c57600435600052609b6020526080604060002060ff6003820154916005600482015491015490604051938452602084015260018060a01b038116604084015260a01c1615156060820152f35b3461028c5760208060031936011261028c5760043580600052609c8252604060002054158061072d5750600052609c8152604060002090604051808383829554938481520190600052836000209260005b858282106107175750505061061592500383612734565b6000805b835181101561066c5761062c8185612ece565b51600052609b835260ff60056040600020015460a01c1615610657575b61065290612ea9565b610619565b9061066461065291612ea9565b919050610649565b5091610677836128eb565b926106856040519485612734565b808452610694601f19916128eb565b01368385013760009060005b8151811015610709576106b38183612ece565b51600052609b845260ff60056040600020015460a01c16156106de575b6106d990612ea9565b6106a0565b916107016106d9916106f08585612ece565b516106fb8289612ece565b52612ea9565b9290506106d0565b6040518061042d8782612666565b85548452600195860195889550930192016105fe565b602492508080610767575b5061075257604051906377fb338960e01b82526004820152fd5b6040519063d22f9c3960e01b82526004820152fd5b905083610738565b3461028c5760208060031936011261028c57600435600052609b8152600660406000200190815461079f816128eb565b926107ad6040519485612734565b8184526000908152828120838086015b8484106107d7576040518281528061042d8185018a612982565b60019182916107e5856127fd565b81520192019201919084906107bd565b3461028c5760208060031936011261028c57600435600052609c815260019181836040600020019160405190819283918186549485815201908196600052826000209460005b8a82601f830110610ca5578561095e985494848410610c90575b848410610c77575b848410610c5e575b848410610c45575b848410610c2e575b848410610c15575b848410610bfc575b848410610be3575b848410610bca575b848410610bb1575b848410610b98575b848410610b7f575b848410610b66575b848410610b4d575b848410610b34575b848410610b1b575b848410610b02575b848410610ae9575b848410610ad0575b848410610ab7575b848410610a9e575b848410610a85575b848410610a6c575b848410610a53575b848410610a3a575b848410610a21575b848410610a08575b8484106109ef575b8484106109d8575b508383106109c0575b8383106109a8575b505010610998575b5090509593959492940384612734565b60405192818401908285525180915260408401949160005b8281106109835785870386f35b83511515875295810195928101928401610976565b60f81c151581520185908861094e565b90919460ff8560f01c16151581520193018a85610946565b90919460ff8560e81c16151581520193018a8561093e565b85901c60ff161515865290940193018a858d610935565b929581839160ff8860d81c16151581520196019261092d565b929581839160ff8860d01c161515815201960192610925565b929581839160ff8860c81c16151581520196019261091d565b929581839160ff8860c01c161515815201960192610915565b929581839160ff8860b81c16151581520196019261090d565b929581839160ff8860b01c161515815201960192610905565b929581839160ff8860a81c1615158152019601926108fd565b929581839160ff8860a01c1615158152019601926108f5565b929581839160ff8860981c1615158152019601926108ed565b929581839160ff8860901c1615158152019601926108e5565b929581839160ff8860881c1615158152019601926108dd565b929581839160ff8860801c1615158152019601926108d5565b929581839160ff8860781c1615158152019601926108cd565b929581839160ff8860701c1615158152019601926108c5565b929581839160ff8860681c1615158152019601926108bd565b929581839160ff8860601c1615158152019601926108b5565b929581839160ff8860581c1615158152019601926108ad565b929581839160ff8860501c1615158152019601926108a5565b929581839160ff8860481c16151581520196019261089d565b929581839160ff8860401c161515815201960192610895565b929581839160ff8860381c16151581520196019261088d565b929581839160ff8860301c161515815201960192610885565b929581839160ff8860281c16151581520196019261087d565b85821c60ff16151587529581019592820192610875565b929581839160ff8860181c16151581520196019261086d565b929581839160ff8860101c161515815201960192610865565b929581839160ff8860081c16151581520196019261085d565b60ff8616151587529581019592820192610855565b91949295509261040090875460ff80821615158352808260081c16151586840152808260101c161515604084015280828a82828782828d82826060828260181c1615158188015282826080951c1615158488015260a096838360281c1615158882015260c09a848460301c1615158c830152848460381c16151590820152838360401c161515610100820152838360481c161515610120820152838360501c161515610140820152610160848460581c1615159101521c1615156101808d0152828260681c1615156101a08d0152828260701c1615156101c08d0152828260781c1615156101e08d01521c1615156102008a0152828260881c1615156102208a0152828260901c1615156102408a0152828260981c1615156102608a01521c161515610280870152828260a81c1615156102a0870152828260b01c1615156102c0870152828260b81c1615156102e08701521c161515610300840152808260c81c161515610320840152808260d01c161515610340840152808260d81c16151561036084015280828a1c161515610380840152808260e81c1615156103a08401528160f01c1615156103c083015260f81c15156103e08201520195019101928792869495929561083b565b3461028c57604036600319011261028c57610e8961263a565b6001600160a01b03166000908152609e602052604090208054602435919082101561028c57602091610eba916127ab565b90546040519160031b1c8152f35b3461028c57600036600319011261028c57602060405160008152f35b3461028c57610ef2366129de565b9091610efc612a21565b60018060a01b0316600052602090609a8252604060002091825415610fe5575b6001809301936001600160401b03831161027657610f4483610f3e87546127c3565b8761306d565b600091601f8411600114610f825750928293918392600094610f77575b50501b916000199060031b1c1916179055600080f35b013592508580610f61565b9183601f1981168760005284600020946000905b88838310610fcb5750505010610fb1575b505050811b019055005b0135600019600384901b60f8161c19169055838080610fa7565b868601358855909601959384019387935090810190610f96565b428355610f1c565b3461028c57602036600319011261028c57600435600052609c602052611049604060002061101d600282016127fd565b9060ff6110576004611031600385016127fd565b930154926040519586956080875260808701906128c6565b9085820360208701526128c6565b6001600160a01b038316604085015260a09290921c16151560608301520390f35b3461028c57604036600319011261028c57600435611094612650565b6000828152609b6020526040902060058101546001600160a01b0393919060ff906110cc866110c23361302b565b16878316146138e1565b60a01c166111545760010180549390600160401b85101561027657846111189160017f9c36476ec530d5b4024edee8143f1fc33550a1ad216d2e678245eb458edcd16c970181556127ab565b815460039190911b83811b19909116928516901b919091179055604080519182526001600160a01b03909216602082015290819081015b0390a1005b60405162461bcd60e51b8152602060048201526015602482015274141bdb1a58de481a5cc819195858dd1a5d985d1959605a1b6044820152606490fd5b3461028c5736600319011261028c576001600160401b0360243581811161028c576111c0903690600401612902565b60443582811161028c576111d89036906004016126a1565b9160643584811161028c576111f1903690600401612902565b60c43594851161028c5761120c610274953690600401612902565b9360a435936084359360043561314a565b3461028c57604036600319011261028c57611236612650565b600435600052606560205260406000209060018060a01b0316600052602052602060ff604060002054166040519015158152f35b3461028c57604036600319011261028c5761128361263a565b6001600160a01b03166000908152609d602052604090208054602435919082101561028c57602091610eba916127ab565b3461028c576112c2366129de565b90916112cc612a21565b60018060a01b031660005260209060998252604060002091825415611388575b6001809301936001600160401b0383116102765761130e83610f3e87546127c3565b600091601f84116001146113405750928293918392600094610f775750501b916000199060031b1c1916179055600080f35b9183601f1981168760005284600020946000905b8883831061136e5750505010610fb157505050811b019055005b868601358855909601959384019387935090810190611354565b4283556112ec565b3461028c5760208060031936011261028c57600435600052609b815260406000209081546113bd816128eb565b926113cb6040519485612734565b8184526000908152828120838086015b8484106113f5576040518281528061042d8185018a612982565b6001918291611403856127fd565b81520192019201919084906113db565b3461028c57600036600319011261028c5760005460ff8160081c1615908180926115fd575b80156115e6575b1561158a5760ff198181166001176000559082611578575b5060ff60005460081c161561151f573360009081526000805160206139eb833981519152602052604090205460ff16156114cb575b5061149357005b61ff0019600054166000557f7f26b83ff96e1f2b6a682f133852f6798a09c465da95921460cefb3847402498602060405160018152a1005b3360008181526000805160206139eb8339815191526020526040812080549093166001179092559081907f2f8788117e7eff1d82e926ec794901d17c78024a50270940304540a733656f0d8180a48161148c565b60405162461bcd60e51b815260206004820152602b60248201527f496e697469616c697a61626c653a20636f6e7472616374206973206e6f74206960448201526a6e697469616c697a696e6760a81b6064820152608490fd5b61ffff19166101011760005582611457565b60405162461bcd60e51b815260206004820152602e60248201527f496e697469616c697a61626c653a20636f6e747261637420697320616c72656160448201526d191e481a5b9a5d1a585b1a5e995960921b6064820152608490fd5b50303b15801561143f5750600160ff82161461143f565b50600160ff821610611438565b3461028c57602036600319011261028c57602061162d61162861263a565b61302b565b6040516001600160a01b039091168152f35b3461028c57602036600319011261028c576001600160a01b0361166061263a565b166000526099602052604060002061167c6001825492016127fd565b9061042d60405192839283526040602084015260408301906128c6565b3461028c57602036600319011261028c5760206001600160a01b03806116bd61263a565b166000526098825260406000205416604051908152f35b3461028c57604036600319011261028c576004356001600160401b036024803582811161028c57611709903690600401612902565b9280600052602091609b835260018060a01b0360059080826040600020015416906117333361302b565b16036119655760005b865181101561176e578061176461175f611759611769948b612ece565b516137e5565b6130b2565b612ea9565b61173c565b50859483600052609b8552600660406000200190865192600160401b8411611950578254908484558185106118de575b5050600091825285822091938787015b8486106117f2577fae23fe7f2da8beb89d6c33f4d47f8af619de8aaf728c36b987bae6be5b32e1d4888861114f8c6040805194859485528401526040830190612982565b80518051908482116118c9579089916118158261180f89546127c3565b8961306d565b8290601f831160011461185e57918060019592869594600092611853575b5050600019600383901b1c191690841b1787555b019401950194926117ae565b015190508e80611833565b90601f1983169188600052846000209260005b8181106118b15750916001969391858897969410611898575b505050831b83018755611847565b015160001960f88460031b161c191690558d808061188a565b8284015185558e966001909501949384019301611871565b83634e487b7160e01b60005260416004526000fd5b83600052848860002092830192015b8281106118fa575061179e565b80611907600192546127c3565b80611914575b50016118ed565b601f90818111841461192d575050600081555b8b61190d565b6119476000928484528d84209201861c8201858301613056565b81835555611927565b84634e487b7160e01b60005260416004526000fd5b60405162461bcd60e51b8152600481018590526011818401527027b7363c903837b634b1bc9037bbb732b960791b6044820152606490fd5b3461028c57604036600319011261028c576004356024359080600052609c60205260406000209060ff60048301546119e960018060a01b03806119df3361302b565b1690831614613924565b60a01c16611a2c5782611a1f7f97fd0f78540a5bcd5a6b6af3e260ab088b75e70678c3768ba048e94d701531b394604094613115565b82519182526020820152a1005b60405162461bcd60e51b8152602060048201526015602482015274109d58dad95d081a5cc819195858dd1a5d985d1959605a1b6044820152606490fd5b3461028c57602036600319011261028c576001600160a01b03611a8a61263a565b16600052609a602052604060002061167c6001825492016127fd565b3461028c57602036600319011261028c57600435609f5481101561028c57609f6000526000805160206139cb8339815191520154604051908152602090f35b3461028c57600036600319011261028c57604051609f80548083526000918252602080840193926000805160206139cb83398151915292915b828210611b355761042d856104ef81890382612734565b835486529485019460019384019390910190611b1e565b3461028c57604036600319011261028c57611b65612650565b336001600160a01b03821603611b815761027490600435612d14565b60405162461bcd60e51b815260206004820152602f60248201527f416363657373436f6e74726f6c3a2063616e206f6e6c792072656e6f756e636560448201526e103937b632b9903337b91039b2b63360891b6064820152608490fd5b3461028c57604036600319011261028c57600435611bfa612650565b816000526065602052611c14600160406000200154612c09565b81600052606560205260406000209060018060a01b0316908160005260205260ff6040600020541615611c4357005b8160005260656020526040600020816000526020526040600020600160ff1982541617905533917f2f8788117e7eff1d82e926ec794901d17c78024a50270940304540a733656f0d600080a4005b3461028c57604036600319011261028c576024356001600160401b03811161028c57611cce611cc66020923690600401612755565b600435612f7f565b6040519015158152f35b3461028c57602036600319011261028c5760043560005260656020526020600160406000200154604051908152f35b3461028c5760208060031936011261028c57611d2161263a565b3360009081526097835260409020546001600160a01b0391908216611e3f57811690816000526098835260406000205416611e0557803314611dc0577f926f98e4b543897a75b3e34b7494ba68a47829d3aa39ffd9c478ccc51bfbfb449160409133600052609782528260002060018060a01b0319908282825416179055816000526098835283600020903390825416179055825191338352820152a1005b60405162461bcd60e51b815260048101839052601f60248201527f4d61696e20616e64204150492063616e6e6f74206265207468652073616d65006044820152606490fd5b60405162461bcd60e51b815260048101839052601260248201527110541248185b1c9958591e48189bdb99195960721b6044820152606490fd5b60405162461bcd60e51b815260048101849052601360248201527213585a5b88185b1c9958591e48189bdb991959606a1b6044820152606490fd5b3461028c57600036600319011261028c5733600081815260976020818152604080842080546001600160a01b031685526098835281852080546001600160a01b031990811690915594869052928252825490931690915590519182527fc4334c4bd536e76bf4341972a09af796d8fd3c7336b1a827427f6c0b52b6620291a1005b3461028c57600036600319011261028c57611f153361302b565b611f2181610475612ee2565b60018060a01b038116611f426040516104a98161049b602096878301612f17565b600052609e8152604060002090604051908181845491828152019360005281600020916000905b828210611f805761042d856104ef81890382612734565b835486529485019460019384019390910190611f69565b3461028c57602036600319011261028c577f3002681acd76b745f42970dd6c00cd7a2f96c2de284fdfd06e0f8fb11296f650602060043580600052609c8252600460406000200180546102f860018060a01b03806119df3361302b565b3461028c5760a036600319011261028c576024356001600160401b03811161028c576120249036906004016126a1565b906044356001600160401b03811161028c576120449036906004016126a1565b6064939193356001600160401b03811161028c576120669036906004016126d1565b6084356001600160401b03811161028c576120859036906004016126d1565b939096600435600052609c60205260406000209560018060a01b0397886004890154166124da576001600160401b03821161027657600160401b8211610276576120d4828954818b558a6130f2565b87600052602060002060005b8381106124c657505050506001600160401b03821161027657600160401b821161027657600186015482600188015580831061246d575b50906001860160005260206000209060005b8160051c81106124375750601f19811681036123e3575b5050506001600160401b0381116102765780600285019261216b8261216586546127c3565b8661306d565b600090601f83116001146123785760009261236d575b50508160011b916000199060031b1c19161790555b60038201906001600160401b038111610276576121bd816121b784546127c3565b8461306d565b6000601f82116001146123065781929394956000926122fb575b50508160011b916000199060031b1c19161790555b816121f63361302b565b168060018060a01b03196004840154161760048301556122478160405161221c816126fe565b6019815278027bbb732b91020b2323932b9b99030b232213ab1b5b2ba1d1603d1b6020820152613967565b600052609d60205261225f6004356040600020613115565b609f5491600160401b831015610276576001830180609f558310156122e557609f600052600480356000805160206139cb8339815191529490940184905591909101546040805193845291166001600160a01b031660208301527fe737a3ee8520887c4018b97f640958f8a2ad13444ab4ff075956b54ca125168491908190810161114f565b634e487b7160e01b600052603260045260246000fd5b0135905085806121d7565b601f198216958360005260206000209160005b8881106123555750836001959697981061233b575b505050811b0190556121ec565b0135600019600384901b60f8161c1916905585808061232e565b90926020600181928686013581550194019101612319565b013590508780612181565b909150601f198316918460005260206000209260005b8181106123cb57509084600195949392106123b1575b505050811b019055612196565b0135600019600384901b60f8161c191690558780806123a4565b9193602060018192878701358155019501920161238e565b60009260005b601f1983168303811061240557505060051c0155868080612140565b9093602061242e60019284612419896138d4565b919060ff809160031b9316831b921b19161790565b950191016123e9565b6000805b60208110612450575083820155600101612129565b9490602061246460019288612419866138d4565b9201950161243b565b61249e9060018801600052601f602060002091818616806124a4575b500160051c810190601f850160051c01613056565b88612117565b600019908184890160051c8601019182549160200360031b1c1690558c612489565b6001906020843594019381840155016120e0565b60405162461bcd60e51b8152602060048201526016602482015275109d58dad95d08125108185b1c9958591e481d5cd95960521b6044820152606490fd5b3461028c5760208060031936011261028c5761253261263a565b6040516001600160a01b0382169161255791906104a990829061049b90878301612f17565b600052609d8152604060002090604051908181845491828152019360005281600020916000905b8282106125955761042d856104ef81890382612734565b83548652948501946001938401939091019061257e565b3461028c57602036600319011261028c5760043563ffffffff60e01b811680910361028c57602090637965db0b60e01b81149081156125f1575b506040519015158152f35b6301ffc9a760e01b149050826125e6565b3461028c57602036600319011261028c576020906001600160a01b038061262761263a565b1660005260978352604060002054168152f35b600435906001600160a01b038216820361028c57565b602435906001600160a01b038216820361028c57565b6020908160408183019282815285518094520193019160005b82811061268d575050505090565b83518552938101939281019260010161267f565b9181601f8401121561028c578235916001600160401b03831161028c576020808501948460051b01011161028c57565b9181601f8401121561028c578235916001600160401b03831161028c576020838186019501011161028c57565b604081019081106001600160401b0382111761027657604052565b608081019081106001600160401b0382111761027657604052565b90601f801991011681019081106001600160401b0382111761027657604052565b81601f8201121561028c578035906001600160401b0382116102765760405192612789601f8401601f191660200185612734565b8284526020838301011161028c57816000926020809301838601378301015290565b80548210156122e55760005260206000200190600090565b90600182811c921680156127f3575b60208310146127dd57565b634e487b7160e01b600052602260045260246000fd5b91607f16916127d2565b9060405191826000825492612811846127c3565b908184526001948581169081600014612880575060011461283d575b505061283b92500383612734565b565b9093915060005260209081600020936000915b81831061286857505061283b9350820101388061282d565b85548884018501529485019487945091830191612850565b91505061283b94506020925060ff191682840152151560051b820101388061282d565b60005b8381106128b65750506000910152565b81810151838201526020016128a6565b906020916128df815180928185528580860191016128a3565b601f01601f1916010190565b6001600160401b0381116102765760051b60200190565b9080601f8301121561028c5781359061291a826128eb565b926129286040519485612734565b828452602092838086019160051b8301019280841161028c57848301915b8483106129565750505050505090565b82356001600160401b03811161028c57869161297784848094890101612755565b815201920191612946565b908082519081815260208091019281808460051b8301019501936000915b8483106129b05750505050505090565b90919293949584806129ce600193601f198682030187528a516128c6565b98019301930191949392906129a0565b90604060031983011261028c576004356001600160a01b038116810361028c5791602435906001600160401b03821161028c57612a1d916004016126d1565b9091565b3360009081526000805160206139eb833981519152602090815260408083205490929060ff1615612a5157505050565b612a5a33612d9b565b9080845190612a6882612719565b60428252848201926060368537825115612bf55760308453825190600191821015612bf55790607860218501536041915b818311612b8757505050612b45576048612b41938693612b2593612b16985198899376020b1b1b2b9b9a1b7b73a3937b61d1030b1b1b7bab73a1604d1b8a860152612aed815180928c6037890191016128a3565b8401917001034b99036b4b9b9b4b733903937b6329607d1b6037840152518093868401906128a3565b01036028810187520185612734565b5192839262461bcd60e51b8452600484015260248301906128c6565b0390fd5b60648486519062461bcd60e51b825280600483015260248201527f537472696e67733a20686578206c656e67746820696e73756666696369656e746044820152fd5b909192600f81166010811015612be1576f181899199a1a9b1b9c1cb0b131b232b360811b901a612bb78587612d8a565b5360041c928015612bcd57600019019190612a99565b634e487b7160e01b82526011600452602482fd5b634e487b7160e01b83526032600452602483fd5b634e487b7160e01b81526032600452602490fd5b60009080825260209060658252604092838120338252835260ff848220541615612c335750505050565b612c3c33612d9b565b91845190612c4982612719565b60428252848201926060368537825115612bf55760308453825190600191821015612bf55790607860218501536041915b818311612cce57505050612b45576048612b41938693612b2593612b16985198899376020b1b1b2b9b9a1b7b73a3937b61d1030b1b1b7bab73a1604d1b8a860152612aed815180928c6037890191016128a3565b909192600f81166010811015612be1576f181899199a1a9b1b9c1cb0b131b232b360811b901a612cfe8587612d8a565b5360041c928015612bcd57600019019190612c7a565b906000918083526065602052604083209160018060a01b03169182845260205260ff604084205416612d4557505050565b8083526065602052604083208284526020526040832060ff1981541690557ff6391f5c32d9c69d2a47ea670b442974b53935d1edc7fd64eb21e047a839171b339380a4565b9081518110156122e5570160200190565b60405190606082018281106001600160401b0382111761027657604052602a82526020820160403682378251156122e5576030905381516001908110156122e557607860218401536029905b808211612e3b575050612df75790565b606460405162461bcd60e51b815260206004820152602060248201527f537472696e67733a20686578206c656e67746820696e73756666696369656e746044820152fd5b9091600f81166010811015612e94576f181899199a1a9b1b9c1cb0b131b232b360811b901a612e6a8486612d8a565b5360041c918015612e7f576000190190612de7565b60246000634e487b7160e01b81526011600452fd5b60246000634e487b7160e01b81526032600452fd5b6000198114612eb85760010190565b634e487b7160e01b600052601160045260246000fd5b80518210156122e55760209160051b010190565b60405190612eef826126fe565b6019825278027bbb732b91020b2323932b9b99033b2ba2837b634b1bc9d1603d1b6020830152565b602b9176024b73b30b634b21037bbb732b91030b2323932b9b99d1604d1b82526bffffffffffffffffffffffff199060601b1660178201520190565b15612f5b5750565b60405162461bcd60e51b815260206004820152908190612b419060248301906128c6565b906000918252602090609b8252600660408420018054612f9e816128eb565b91612fac6040519384612734565b81835285528385208590858085015b84841061300d575050505050835b815181101561300657612fdc8183612ece565b5184815191012083518585012014612ffc57612ff790612ea9565b612fc9565b5050505050600190565b5050505090565b600191829161301b856127fd565b8152019201920191908690612fbb565b6001600160a01b0381811660009081526098602052604090205416908115613051575090565b905090565b818110613061575050565b60008155600101613056565b9190601f811161307c57505050565b61283b926000526020600020906020601f840160051c830193106130a8575b601f0160051c0190613056565b909150819061309b565b156130b957565b60405162461bcd60e51b815260206004820152601160248201527024b73b30b634b21037b832b930ba34b7b760791b6044820152606490fd5b918181106130ff57505050565b61283b9260005260206000209182019101613056565b8054600160401b81101561027657613132916001820181556127ab565b819291549060031b91821b91600019901b1916179055565b9491979592969793909360005b89805182101561317a579061176461175f6117598361317595612ece565b613157565b50509091929394959686600052609b60205260406000209560018060a01b036005880154166137a757805190600160401b8211610276578754828955808310613732575b50600088815260208082209392015b828210613656575050505060018601916001600160401b03821161027657600160401b821161027657613205828454818655856130f2565b916000526020600020916000905b828210613631575050825192915050600160401b82116102765760028501548260028701558083106135b8575b5060200190600285016000526020600020916000905b8282106134d557505050506003830155600482015560058101805460ff60a01b1981169091556001600160a01b0361328d3361302b565b6001600160a81b0319909216911617600582015583516006820194600160401b8211610276578554828755808310613460575b50602001946000526020600020946000905b82821061337d575050507f977367dcdd13b45f9ddcc1b0b549054231eee20e8e2795185f2448336a19414692935060018060a01b03600582015416600052609e602052613323826040600020613115565b600560018060a01b03910154169061336282604051613341816126fe565b600f81526e027bbb732b91020b2323932b9b99d1608d1b6020820152613967565b604080519182526001600160a01b03929092166020820152a1565b80518051906001600160401b038211610276576133a48261339e8b546127c3565b8b61306d565b602090601f83116001146133f05792826001949360209386956000926133e5575b5050600019600383901b1c191690841b178a555b019701910190956132d2565b0151905038806133c5565b908960005260206000209160005b601f1985168110613448575083602093600196938796938794601f1981161061342f575b505050811b018a556133d9565b015160001960f88460031b161c19169055388080613422565b919260206001819286850151815501940192016133fe565b8660005282602060002091820191015b81811061347d57506132c0565b8061348a600192546127c3565b80613497575b5001613470565b601f9081811184146134b0575050600081555b38613490565b6134cc60009284845260208420920160051c8201858301613056565b818355556134aa565b80518051906001600160401b038211610276576134fc826134f688546127c3565b8861306d565b602090601f831160011461354857928260019493602093869560009261353d575b5050600019600383901b1c191690841b1787555b01940191019092613256565b01519050388061351d565b908660005260206000209160005b601f19851681106135a0575083602093600196938796938794601f19811610613587575b505050811b018755613531565b015160001960f88460031b161c1916905538808061357a565b91926020600181928685015181550194019201613556565b600286016000526020600020908382015b81830181106135d9575050613240565b806135e6600192546127c3565b806135f3575b50016135c9565b601f90818111841461360c575050600081555b386135ec565b61362860009284845260208420920160051c8201858301613056565b81835555613606565b8035916001600160a01b038316830361028c5760206001920192818601550190613213565b80518051906001600160401b03821161027657613677826134f688546127c3565b602090601f83116001146136c35792826001949360209386956000926136b8575b5050600019600383901b1c191690841b1787555b019401910190926131cd565b015190503880613698565b908660005260206000209160005b601f198516811061371a57509260209260019592869583601f19811610613701575b505050831b830187556136ac565b015160001960f88460031b161c191690553880806136f3565b919260206001819286850151815501940192016136d1565b8860005282602060002091820191015b81811061374f57506131be565b8061375c600192546127c3565b80613769575b5001613742565b601f908181118414613782575050600081555b38613762565b61379e60009284845260208420920160051c8201858301613056565b8183555561377c565b60405162461bcd60e51b8152602060048201526016602482015275141bdb1a58de48125108185b1c9958591e481d5cd95960521b6044820152606490fd5b602081519101207fc82306b6ab1b4c67429442feb1e6d238135a6cfcaa471a01b0e336f01b048e3881149081156138aa575b8115613880575b8115613856575b811561382f575090565b7fb3e4a8b42cc6ca791003100de208bf7bf23de2da2db3cb17f74c4327c6fe24d991501490565b7fd565eabc1e68b7b500ce4f775df0503c4b17849f65ea279cd25387628f1eebab81149150613825565b7f4182e5b1bf2924d191fd32f0d581c5f2c82721c218439fc1d0b04996c42bf1578114915061381e565b7f0fdbd160736e9b9b51ea9a79a8ed86f427a62e0e377d60335d2ec895c27025bb81149150613817565b35801515810361028c5790565b156138e857565b60405162461bcd60e51b81526020600482015260146024820152732737ba103a3432903837b634b1bc9037bbb732b960611b6044820152606490fd5b1561392b57565b60405162461bcd60e51b81526020600482015260146024820152732737ba103a343290313ab1b5b2ba1037bbb732b960611b6044820152606490fd5b6000919082916139b76040518092613998602083019563319af33360e01b87526040602485015260648401906128c6565b6001600160a01b0391909116604483015203601f198101835282612734565b51906a636f6e736f6c652e6c6f675afa5056fe0bc14066c33013fe88f66e314e4cf150b0b2d4d6451a1a51dbbd1c27cd11de28ffdfc1249c027f9191656349feb0761381bb32c9f557e01f419fd08754bf5a1ba2646970667358221220135fb68616d9a9e5d88d06ac09af3993cff98873a28153c5c9b61b9b977816dd64736f6c63430008130033",
  "linkReferences": {},
  "deployedLinkReferences": {}
}