{
  "_format": "hh-sol-artifact-1",
  "contractName": "QueryManager",
  "sourceName": "contracts/QueryManager.sol",
  "abi": [
    {
      "inputs": [],
      "stateMutability": "nonpayable",
      "type": "constructor"
    },
    {
      "anonymous": false,
      "inputs": [
        {
          "indexed": false,
          "internalType": "uint256",
          "name": "value",
          "type": "uint256"
        },
        {
          "indexed": false,
          "internalType": "address",
          "name": "to",
          "type": "address"
        },
        {
          "indexed": false,
          "internalType": "uint256",
          "name": "queryIndex",
          "type": "uint256"
        }
      ],
      "name": "DistributePay",
      "type": "event"
    },
    {
      "anonymous": false,
      "inputs": [
        {
          "indexed": false,
          "internalType": "address",
          "name": "newRecipient",
          "type": "address"
        },
        {
          "indexed": false,
          "internalType": "uint256",
          "name": "newFee",
          "type": "uint256"
        }
      ],
      "name": "FeeInfoUpdated",
      "type": "event"
    },
    {
      "anonymous": false,
      "inputs": [
        {
          "indexed": false,
          "internalType": "uint8",
          "name": "version",
          "type": "uint8"
        }
      ],
      "name": "Initialized",
      "type": "event"
    },
    {
      "anonymous": false,
      "inputs": [
        {
          "indexed": false,
          "internalType": "uint256",
          "name": "value",
          "type": "uint256"
        },
        {
          "indexed": false,
          "internalType": "address",
          "name": "user",
          "type": "address"
        },
        {
          "indexed": false,
          "internalType": "uint256",
          "name": "queryIndex",
          "type": "uint256"
        }
      ],
      "name": "PaidQuery",
      "type": "event"
    },
    {
      "anonymous": false,
      "inputs": [
        {
          "indexed": false,
          "internalType": "uint256",
          "name": "value",
          "type": "uint256"
        },
        {
          "indexed": false,
          "internalType": "address",
          "name": "user",
          "type": "address"
        },
        {
          "indexed": false,
          "internalType": "uint256",
          "name": "queryIndex",
          "type": "uint256"
        }
      ],
      "name": "RefundQuery",
      "type": "event"
    },
    {
      "anonymous": false,
      "inputs": [
        {
          "indexed": true,
          "internalType": "bytes32",
          "name": "role",
          "type": "bytes32"
        },
        {
          "indexed": true,
          "internalType": "bytes32",
          "name": "previousAdminRole",
          "type": "bytes32"
        },
        {
          "indexed": true,
          "internalType": "bytes32",
          "name": "newAdminRole",
          "type": "bytes32"
        }
      ],
      "name": "RoleAdminChanged",
      "type": "event"
    },
    {
      "anonymous": false,
      "inputs": [
        {
          "indexed": true,
          "internalType": "bytes32",
          "name": "role",
          "type": "bytes32"
        },
        {
          "indexed": true,
          "internalType": "address",
          "name": "account",
          "type": "address"
        },
        {
          "indexed": true,
          "internalType": "address",
          "name": "sender",
          "type": "address"
        }
      ],
      "name": "RoleGranted",
      "type": "event"
    },
    {
      "anonymous": false,
      "inputs": [
        {
          "indexed": true,
          "internalType": "bytes32",
          "name": "role",
          "type": "bytes32"
        },
        {
          "indexed": true,
          "internalType": "address",
          "name": "account",
          "type": "address"
        },
        {
          "indexed": true,
          "internalType": "address",
          "name": "sender",
          "type": "address"
        }
      ],
      "name": "RoleRevoked",
      "type": "event"
    },
    {
      "anonymous": false,
      "inputs": [
        {
          "indexed": false,
          "internalType": "address",
          "name": "user",
          "type": "address"
        },
        {
          "indexed": false,
          "internalType": "uint256",
          "name": "queryIndex",
          "type": "uint256"
        }
      ],
      "name": "SuccessfulQuery",
      "type": "event"
    },
    {
      "inputs": [],
      "name": "DEFAULT_ADMIN_ROLE",
      "outputs": [
        {
          "internalType": "bytes32",
          "name": "",
          "type": "bytes32"
        }
      ],
      "stateMutability": "view",
      "type": "function"
    },
    {
      "inputs": [],
      "name": "PPC_ROLE",
      "outputs": [
        {
          "internalType": "bytes32",
          "name": "",
          "type": "bytes32"
        }
      ],
      "stateMutability": "view",
      "type": "function"
    },
    {
      "inputs": [],
      "name": "currentIndex",
      "outputs": [
        {
          "internalType": "uint256",
          "name": "",
          "type": "uint256"
        }
      ],
      "stateMutability": "view",
      "type": "function"
    },
    {
      "inputs": [],
      "name": "eoaBond",
      "outputs": [
        {
          "internalType": "contract EoaBond",
          "name": "",
          "type": "address"
        }
      ],
      "stateMutability": "view",
      "type": "function"
    },
    {
      "inputs": [],
      "name": "feeBps",
      "outputs": [
        {
          "internalType": "uint256",
          "name": "",
          "type": "uint256"
        }
      ],
      "stateMutability": "view",
      "type": "function"
    },
    {
      "inputs": [],
      "name": "feeRecipient",
      "outputs": [
        {
          "internalType": "address",
          "name": "",
          "type": "address"
        }
      ],
      "stateMutability": "view",
      "type": "function"
    },
    {
      "inputs": [
        {
          "internalType": "address",
          "name": "user",
          "type": "address"
        }
      ],
      "name": "getAllUserQueries",
      "outputs": [
        {
          "components": [
            {
              "internalType": "uint256",
              "name": "queryIndex",
              "type": "uint256"
            },
            {
              "internalType": "string",
              "name": "ppcCmd",
              "type": "string"
            },
            {
              "internalType": "string",
              "name": "result",
              "type": "string"
            },
            {
              "internalType": "enum QueryManager.QueryStatus",
              "name": "status",
              "type": "uint8"
            },
            {
              "internalType": "uint256",
              "name": "totalPaid",
              "type": "uint256"
            },
            {
              "internalType": "uint256[]",
              "name": "bucketIds",
              "type": "uint256[]"
            },
            {
              "internalType": "uint256[]",
              "name": "policyIndexes",
              "type": "uint256[]"
            }
          ],
          "internalType": "struct QueryManager.Query[]",
          "name": "",
          "type": "tuple[]"
        }
      ],
      "stateMutability": "view",
      "type": "function"
    },
    {
      "inputs": [
        {
          "internalType": "uint256",
          "name": "queryIndex",
          "type": "uint256"
        }
      ],
      "name": "getQuery",
      "outputs": [
        {
          "components": [
            {
              "internalType": "uint256",
              "name": "queryIndex",
              "type": "uint256"
            },
            {
              "internalType": "string",
              "name": "ppcCmd",
              "type": "string"
            },
            {
              "internalType": "string",
              "name": "result",
              "type": "string"
            },
            {
              "internalType": "enum QueryManager.QueryStatus",
              "name": "status",
              "type": "uint8"
            },
            {
              "internalType": "uint256",
              "name": "totalPaid",
              "type": "uint256"
            },
            {
              "internalType": "uint256[]",
              "name": "bucketIds",
              "type": "uint256[]"
            },
            {
              "internalType": "uint256[]",
              "name": "policyIndexes",
              "type": "uint256[]"
            }
          ],
          "internalType": "struct QueryManager.Query",
          "name": "",
          "type": "tuple"
        }
      ],
      "stateMutability": "view",
      "type": "function"
    },
    {
      "inputs": [
        {
          "internalType": "uint256",
          "name": "queryIndex",
          "type": "uint256"
        }
      ],
      "name": "getQueryBucketIds",
      "outputs": [
        {
          "internalType": "uint256[]",
          "name": "",
          "type": "uint256[]"
        }
      ],
      "stateMutability": "view",
      "type": "function"
    },
    {
      "inputs": [
        {
          "internalType": "address",
          "name": "user",
          "type": "address"
        },
        {
          "internalType": "uint256",
          "name": "index",
          "type": "uint256"
        }
      ],
      "name": "getQueryByUserIndex",
      "outputs": [
        {
          "components": [
            {
              "internalType": "uint256",
              "name": "queryIndex",
              "type": "uint256"
            },
            {
              "internalType": "string",
              "name": "ppcCmd",
              "type": "string"
            },
            {
              "internalType": "string",
              "name": "result",
              "type": "string"
            },
            {
              "internalType": "enum QueryManager.QueryStatus",
              "name": "status",
              "type": "uint8"
            },
            {
              "internalType": "uint256",
              "name": "totalPaid",
              "type": "uint256"
            },
            {
              "internalType": "uint256[]",
              "name": "bucketIds",
              "type": "uint256[]"
            },
            {
              "internalType": "uint256[]",
              "name": "policyIndexes",
              "type": "uint256[]"
            }
          ],
          "internalType": "struct QueryManager.Query",
          "name": "",
          "type": "tuple"
        }
      ],
      "stateMutability": "view",
      "type": "function"
    },
    {
      "inputs": [
        {
          "internalType": "uint256",
          "name": "queryIndex",
          "type": "uint256"
        }
      ],
      "name": "getQueryPolicyIndexes",
      "outputs": [
        {
          "internalType": "uint256[]",
          "name": "",
          "type": "uint256[]"
        }
      ],
      "stateMutability": "view",
      "type": "function"
    },
    {
      "inputs": [
        {
          "internalType": "bytes32",
          "name": "role",
          "type": "bytes32"
        }
      ],
      "name": "getRoleAdmin",
      "outputs": [
        {
          "internalType": "bytes32",
          "name": "",
          "type": "bytes32"
        }
      ],
      "stateMutability": "view",
      "type": "function"
    },
    {
      "inputs": [
        {
          "internalType": "address",
          "name": "user",
          "type": "address"
        }
      ],
      "name": "getUserIndex",
      "outputs": [
        {
          "internalType": "uint256",
          "name": "",
          "type": "uint256"
        }
      ],
      "stateMutability": "view",
      "type": "function"
    },
    {
      "inputs": [
        {
          "internalType": "bytes32",
          "name": "role",
          "type": "bytes32"
        },
        {
          "internalType": "address",
          "name": "account",
          "type": "address"
        }
      ],
      "name": "grantRole",
      "outputs": [],
      "stateMutability": "nonpayable",
      "type": "function"
    },
    {
      "inputs": [
        {
          "internalType": "bytes32",
          "name": "role",
          "type": "bytes32"
        },
        {
          "internalType": "address",
          "name": "account",
          "type": "address"
        }
      ],
      "name": "hasRole",
      "outputs": [
        {
          "internalType": "bool",
          "name": "",
          "type": "bool"
        }
      ],
      "stateMutability": "view",
      "type": "function"
    },
    {
      "inputs": [
        {
          "internalType": "address",
          "name": "_usdc",
          "type": "address"
        }
      ],
      "name": "initialize",
      "outputs": [],
      "stateMutability": "nonpayable",
      "type": "function"
    },
    {
      "inputs": [
        {
          "internalType": "uint256",
          "name": "userIndex",
          "type": "uint256"
        },
        {
          "internalType": "string",
          "name": "ppcCmd",
          "type": "string"
        },
        {
          "internalType": "uint256",
          "name": "payAmount",
          "type": "uint256"
        },
        {
          "internalType": "uint256[]",
          "name": "bucketIds",
          "type": "uint256[]"
        },
        {
          "internalType": "uint256[]",
          "name": "policyIndexes",
          "type": "uint256[]"
        }
      ],
      "name": "payQuery",
      "outputs": [],
      "stateMutability": "nonpayable",
      "type": "function"
    },
    {
      "inputs": [
        {
          "internalType": "uint256",
          "name": "queryIndex",
          "type": "uint256"
        },
        {
          "internalType": "string",
          "name": "result",
          "type": "string"
        }
      ],
      "name": "postQueryResult",
      "outputs": [],
      "stateMutability": "nonpayable",
      "type": "function"
    },
    {
      "inputs": [
        {
          "internalType": "uint256",
          "name": "queryIndex",
          "type": "uint256"
        },
        {
          "internalType": "string",
          "name": "error",
          "type": "string"
        }
      ],
      "name": "refundFailedQuery",
      "outputs": [],
      "stateMutability": "nonpayable",
      "type": "function"
    },
    {
      "inputs": [
        {
          "internalType": "bytes32",
          "name": "role",
          "type": "bytes32"
        },
        {
          "internalType": "address",
          "name": "account",
          "type": "address"
        }
      ],
      "name": "renounceRole",
      "outputs": [],
      "stateMutability": "nonpayable",
      "type": "function"
    },
    {
      "inputs": [
        {
          "internalType": "bytes32",
          "name": "role",
          "type": "bytes32"
        },
        {
          "internalType": "address",
          "name": "account",
          "type": "address"
        }
      ],
      "name": "revokeRole",
      "outputs": [],
      "stateMutability": "nonpayable",
      "type": "function"
    },
    {
      "inputs": [
        {
          "internalType": "address",
          "name": "newAddress",
          "type": "address"
        }
      ],
      "name": "setEoaBondContract",
      "outputs": [],
      "stateMutability": "nonpayable",
      "type": "function"
    },
    {
      "inputs": [
        {
          "internalType": "uint256",
          "name": "_feeBps",
          "type": "uint256"
        },
        {
          "internalType": "address",
          "name": "_recipient",
          "type": "address"
        }
      ],
      "name": "setFeeAndRecipient",
      "outputs": [],
      "stateMutability": "nonpayable",
      "type": "function"
    },
    {
      "inputs": [
        {
          "internalType": "bytes4",
          "name": "interfaceId",
          "type": "bytes4"
        }
      ],
      "name": "supportsInterface",
      "outputs": [
        {
          "internalType": "bool",
          "name": "",
          "type": "bool"
        }
      ],
      "stateMutability": "view",
      "type": "function"
    },
    {
      "inputs": [],
      "name": "usdc",
      "outputs": [
        {
          "internalType": "contract IERC20Upgradeable",
          "name": "",
          "type": "address"
        }
      ],
      "stateMutability": "view",
      "type": "function"
    }
  ],
  "bytecode": "0x608080604052346100c2576000549060ff8260081c16610070575060ff80821603610035575b6040516130579081620000c88239f35b60ff90811916176000557f7f26b83ff96e1f2b6a682f133852f6798a09c465da95921460cefb3847402498602060405160ff8152a138610025565b62461bcd60e51b815260206004820152602760248201527f496e697469616c697a61626c653a20636f6e747261637420697320696e697469604482015266616c697a696e6760c81b6064820152608490fd5b600080fdfe608080604052600436101561001357600080fd5b60003560e01c90816301ffc9a71461202d57508063248a9ca314611ffe57806324a9d85314611fe057806326987b6014611fc2578063273ce16314611a0857806328ba3b5414611921578063292808a11461169d5780632f2ff15d146115fc57806336568abe1461156a578063379917c5146115425780633c9f1f87146115185780633e413bee146114ef57806346904840146114c65780634b0d58d51461149d578063627be501146114745780637812c4a11461142457806384c6e0d8146113b75780639019cce81461054857806391d14854146104fb578063a217fddf146104df578063aeb2ffc1146104a8578063c4d66de814610276578063d547741f14610235578063dbe070fb146101715763ee9907a41461013257600080fd5b3461016c57602036600319011261016c576001600160a01b036101536120e0565b1660005260cd6020526020604060002054604051908152f35b600080fd5b3461016c57604036600319011261016c5760043561018d6120f6565b90610196612442565b61271081116101f75760ce81905560cf80546001600160a01b0319166001600160a01b039390931692831790556040805192835260208301919091527f309b6393e1f460ba524a92be7cf63622f4a3aecc37c0c13bfc227ed4d86aad6291a1005b60405162461bcd60e51b81526020600482015260166024820152754665652063616e6e6f7420657863656564203130302560501b6044820152606490fd5b3461016c57604036600319011261016c576102746004356102546120f6565b9080600052606560205261026f600160406000200154612566565b6126fe565b005b3461016c5760208060031936011261016c576102906120e0565b6000549060ff808360081c16159283809461049c575b8015610486575b1561042a5760ff198181166001176000559084610418575b506102ed8260005460081c166102da816128d1565b6102e3816128d1565b60016097556128d1565b600080526065855260406000203360005285528160406000205416156103dc575b6000805160206130028339815191529182600052606586526040600020336000528652604060002054161561039d575b505060c980546001600160a01b0319166001600160a01b039290921691909117905561036657005b7f7f26b83ff96e1f2b6a682f133852f6798a09c465da95921460cefb38474024989061ff00196000541660005560405160018152a1005b81600052606585526040600020336000528552600160406000209182541617905533903390600080516020612fe2833981519152600080a4838061033e565b60008052606585526040600020336000528552604060002060018282541617905533336000600080516020612fe28339815191528180a461030e565b61ffff191661010117600055856102c5565b60405162461bcd60e51b815260048101869052602e60248201527f496e697469616c697a61626c653a20636f6e747261637420697320616c72656160448201526d191e481a5b9a5d1a585b1a5e995960921b6064820152608490fd5b50303b1580156102ad57506001828216146102ad565b506001828216106102a6565b3461016c57602036600319011261016c576104db6104c7600435612d87565b604051918291602083526020830190612188565b0390f35b3461016c57600036600319011261016c57602060405160008152f35b3461016c57604036600319011261016c576105146120f6565b600435600052606560205260406000209060018060a01b0316600052602052602060ff604060002054166040519015158152f35b3461016c5760a036600319011261016c576024356001600160401b03811161016c57610578903690600401612080565b906064356001600160401b03811161016c57610598903690600401612209565b926084356001600160401b03811161016c576105b8903690600401612209565b6105c0612931565b8581036113635760ca5460009081906001600160a01b03165b888210610c5d575050610612816040516105f28161268c565b600e81526d03a37ba30b6223ab2901e9e9e9f160951b6020820152612f42565b6106456040516106218161268c565b600e81526d3830bca0b6b7bab73a101e9e9e9f60911b602082015260443590612f42565b60443503610c21573360005260cd60205260406000205460043503610be75760c9546040516323b872dd60e01b8152336004820152306024820152604480359082015290602090829060649082906000906001600160a01b03165af1908115610bdb57600091610ba1575b5015610b495760cc54943360005260cd602052604060002094604051976106d689612671565b8789526106e286612781565b6106ef60405191826126dd565b868152368785011161016c57600060208861074c9961074097838601378301015260208a0152604051610721816126a7565b6000815260408a0152600160608a015260443560808a015236916129ab565b60a087015236916129ab565b60c08401528054600160401b8110156109c45761076e916001820181556129f9565b9190916109ae578251825560208301519283516001600160401b0381116109c4576107a9816107a06001870154612a15565b60018701612a66565b6020601f8211600114610ada578192939495600092610acf575b50508160011b916000199060031b1c19161760018401555b60408101519283516001600160401b0381116109c45761080b816108026002850154612a15565b60028501612a66565b6020601f8211600114610a60578192939495600092610a55575b50508160011b916000199060031b1c19161760028201555b6003810160608301516004811015610a3f5760ff801983541691161790556080820151600482015560a08201518051906001600160401b0382116109c457600160401b82116109c4576020906005840154836005860155808410610a1f575b500160058301600052602060002060005b838110610a0b5760c08601518051889160068801906001600160401b0383116109c457600160401b83116109c45760209082548484558085106109ee575b500190600052602060002060005b8381106109da576040518561090d8261268c565b3382526020820190600435825260cc54600160401b8110156109c457806001610939920160cc55612aad565b6109ae57925183546001600160a01b0319166001600160a01b0391909116178355905160019290920191909155604080516044358152336020820152908101919091527f414cbe13766319becf7803190af5a9274d3ce41bca3adf6f85e5ef26d51415249080606081015b0390a16001609755005b634e487b7160e01b600052600060045260246000fd5b634e487b7160e01b600052604160045260246000fd5b6001906020845194019381840155016108f9565b610a05908460005285846000209182019101612a4f565b856108eb565b6001906020845194019381840155016108ad565b610a39906005860160005284846000209182019101612a4f565b8661089c565b634e487b7160e01b600052602160045260246000fd5b015190508580610825565b6002830160005260206000209060005b601f1984168110610ab7575060019394959683601f19811610610a9e575b505050811b01600282015561083d565b015160001960f88460031b161c19169055858080610a8e565b9091602060018192858b015181550193019101610a70565b0151905085806107c3565b6001850160005260206000209060005b601f1984168110610b31575060019394959683601f19811610610b18575b505050811b0160018401556107db565b015160001960f88460031b161c19169055858080610b08565b9091602060018192858b015181550193019101610aea565b60405162461bcd60e51b815260206004820152602a60248201527f4661696c656420746f207472616e7366657220746f6b656e7320746f207468696044820152691cc818dbdb9d1c9858dd60b21b6064820152608490fd5b90506020813d602011610bd3575b81610bbc602093836126dd565b8101031261016c57610bcd90612987565b876106b0565b3d9150610baf565b6040513d6000823e3d90fd5b60405162461bcd60e51b8152602060048201526012602482015271092dcecc2d8d2c840eae6cae440d2dcc8caf60731b6044820152606490fd5b60405162461bcd60e51b8152602060048201526014602482015273125b98dbdc9c9958dd081c185e48185b5bdd5b9d60621b6044820152606490fd5b939590979294610c718985849a959a612adb565b60405163696412bd60e11b815290356004820152600081602481895afa8015610bdb57610cb391600091611340575b50610cac8b898b612adb565b3590612b64565b519660405163d3e8948360e01b8152886004820152608080826024818b5afa918215610bdb5760009b600091600093600095611304575b505090610cf691612774565b9a4210156112ce576001600160a01b031615611291576112545760405163796d749b60e01b8152336004820152966020886024818a5afa978815610bdb57600098611218575b5060405198636f6bfa5760e11b8a5260048a01526000896024818a5afa988915610bdb57600099611165575b50610d748b8786612adb565b6040516363c1f23760e11b8152903560048201529960008b6024818b5afa9a8b15610bdb5760009b6110b2575b5060009a610db08d8486612adb565b358151111561106257610dc890610cac8e8587612adb565b511515610e0a81604051610ddb8161268c565b601b81527f757365416c6c6f776c697374466f724275636b6574203d3d3d3d3e00000000006020820152612f9a565b610e4a8b51604051610e1b8161268c565b601d81527f616c6c6f7765644164647265737365732e6c656e677468203d3d3d3d3e0000006020820152612f42565b1561104f5760005b8a5181101561103d5789600080604051610e6b8161268c565b601681527521b432b1b59036b0b4b729b2b73232b9101e9e9e9e9f60511b6020820152604051610ed681610eb8602082019463319af33360e01b865260406024840152606483019061212f565b9660018060a01b03169687604483015203601f1981018352826126dd565b51906a636f6e736f6c652e6c6f675afa506001600160a01b03610ef9838e612b64565b511614610f0e57610f0990612acc565b610e52565b90959a506000929794998392979c949950610f308260018060a01b0392612b64565b511690610fa960405192610f438461268c565b6017845276416c6c6f77656420616464726573735b25735d3a20257360481b6020850152604051928391610f90602084019663038fd88960e31b885260606024860152608485019061212f565b916044840152606483015203601f1981018352826126dd565b51906a636f6e736f6c652e6c6f675afa5060015b610fee81604051610fcd8161268c565b600f81526e034b9a0b63637bbb2b2103830b9b99608d1b6020820152612f9a565b1561100257610ffc90612acc565b906105d9565b60405162461bcd60e51b8152602060048201526013602482015272556e617574686f72697a65642061636365737360681b6044820152606490fd5b50949991969398509499919650610fbd565b9499509499919650949196506001610fbd565b60405162461bcd60e51b815260206004820152602260248201527f506f6c69637920757365416c6c6f776c697374206e6f7420636f6e6669677572604482015261195960f21b6064820152608490fd5b909a503d90816000823e6110c682826126dd565b602081838101031261016c578051916001600160401b03831161016c57808201601f84840101121561016c57828201519161110083612994565b9361110e60405195866126dd565b8385526020850192820160208560051b83850101011161016c57602081830101925b60208560051b8385010101841061114d575050505050998c610da1565b6020809161115a86612987565b815201930192611130565b9098503d90816000823e61117982826126dd565b602081838101031261016c578051916001600160401b03831161016c57808201601f84840101121561016c5782820151916111b383612994565b936111c160405195866126dd565b8385526020850192820160208560051b83850101011161016c57602081830101925b60208560051b83850101018410611200575050505050978b610d68565b6020809161120d86612b78565b8152019301926111e3565b9097506020813d60201161124c575b81611234602093836126dd565b8101031261016c5761124590612b78565b968b610d3c565b3d9150611227565b60405162461bcd60e51b8152602060048201526015602482015274141bdb1a58de481a5cc819195858dd1a5d985d1959605a1b6044820152606490fd5b60405162461bcd60e51b8152602060048201526015602482015274141bdb1a58de48191bd95cc81b9bdd08195e1a5cdd605a1b6044820152606490fd5b60405162461bcd60e51b815260206004820152600e60248201526d141bdb1a58de48195e1c1a5c995960921b6044820152606490fd5b9194509150610cf69c5061132d9250803d10611339575b61132581836126dd565b810190612b8c565b929c929390928f610cea565b503d61131b565b61135d91503d806000833e61135581836126dd565b810190612aeb565b8b610ca0565b60405162461bcd60e51b815260206004820152602660248201527f4275636b657473206d757374206861766520636f72726573706f6e64696e6720604482015265706f6c69637960d01b6064820152608490fd5b3461016c57602036600319011261016c576104db61141060066114096113e76113e1600435612aad565b50612bf2565b60018060a01b0381511660005260cd60205260206040600020910151906129f9565b5001612cbd565b604051918291602083526020830190612154565b3461016c57602036600319011261016c5761143d6120e0565b611445612442565b61144d612931565b60ca80546001600160a01b0319166001600160a01b03929092169190911790556001609755005b3461016c57600036600319011261016c5760ca546040516001600160a01b039091168152602090f35b3461016c57600036600319011261016c5760206040516000805160206130028339815191528152f35b3461016c57600036600319011261016c5760cf546040516001600160a01b039091168152602090f35b3461016c57600036600319011261016c5760c9546040516001600160a01b039091168152602090f35b3461016c57602036600319011261016c576104db61141060056114096113e76113e1600435612aad565b3461016c57604036600319011261016c576104db6104c76115616120e0565b60243590612e0c565b3461016c57604036600319011261016c576115836120f6565b336001600160a01b0382160361159f57610274906004356126fe565b60405162461bcd60e51b815260206004820152602f60248201527f416363657373436f6e74726f6c3a2063616e206f6e6c792072656e6f756e636560448201526e103937b632b9903337b91039b2b63360891b6064820152608490fd5b3461016c57604036600319011261016c576004356116186120f6565b816000526065602052611632600160406000200154612566565b81600052606560205260406000209060018060a01b0316908160005260205260ff604060002054161561166157005b8160005260656020526040600020816000526020526040600020600160ff198254161790553391600080516020612fe2833981519152600080a4005b3461016c576116ab366120ad565b6116b6929192612239565b6116be612931565b6116cb60cb548314612ea3565b6116d76113e183612aad565b9060018060a01b03938483511660005260209060cd8252611700604060002083860151906129f9565b509260028401916001600160401b0382116109c457819061172b826117258654612a15565b86612a66565b600090601f83116001146118b7576000926118ac575b50508160011b916000199060031b1c19161790555b60038201600260ff1982541617905560cb54600181018091116118965760cb5560c95483516004938401805460405163a9059cbb60e01b81529289166001600160a01b031695830195909552602482019490945290829082908816816000816044810103925af1908115610bdb57600091611861575b501561181d57505490516040805192835293166001600160a01b03166020820152918201527f0db5dca4dd414f50b27b36cd3fe4a713a2b72c882d12764afc08d327f24be8e79080606081016109a4565b6064906040519062461bcd60e51b82526004820152601f60248201527f4661696c656420746f20726566756e6420746f6b656e7320746f2075736572006044820152fd5b90508181813d831161188f575b61187881836126dd565b8101031261016c5761188990612987565b866117cc565b503d61186e565b634e487b7160e01b600052601160045260246000fd5b013590508880611741565b909150601f1983169184600052856000209260005b8782821061190b5750509084600195949392106118f1575b505050811b019055611756565b0135600019600384901b60f8161c191690558880806118e4565b60018496829395870135815501950192016118cc565b3461016c5760208060031936011261016c576001600160a01b036119436120e0565b1660005260cd815260406000209081549161195d83612994565b9261196b60405194856126dd565b8084528284018092600052836000206000915b8383106119e55750505050604051918083019381845251809452604083019360408160051b85010192916000955b8287106119b95785850386f35b9091929382806119d5600193603f198a82030186528851612188565b96019201960195929190926119ac565b6007866001926119f7859a999a612d0c565b81520192019201919095949561197e565b3461016c57611a16366120ad565b91611a1f612239565b611a27612931565b611a3460cb548214612ea3565b611a406113e182612aad565b9160018060a01b0383511660005260cd602052611a6660406000206020850151906129f9565b509360028501916001600160401b0382116109c4578190611a8b826117258654612a15565b600090601f8311600114611f5757600092611f4c575b50508160011b916000199060031b1c19161790555b60038301600360ff1982541617905560009260005b6005820154811015611dc15760ca546001600160a01b031690611af18160058501612ee8565b905460405163696412bd60e11b815260039290921b1c6004820152600081602481865afa8015610bdb57611b4291600091611da6575b50611b358360068701612ee8565b90549060031b1c90612b64565b516040519063d3e8948360e01b825260048201526080928382602481845afa918215610bdb57600092611d83575b506000611b808460058801612ee8565b90549060031b1c602460405180948193639b51fb0d60e01b835260048301525afa938415610bdb57600094611d01575b505060ce549061271091820390828211611896578181029181830414901517156118965760c95460405163a9059cbb60e01b81526001600160a01b0386811660048301529390920460248301819052989260209183916044918391600091165af1908115610bdb57600091611cc7575b5015611c8257611c7d92611c55887f55703a43e3a9fde77a83dbeae6ceb4606e2958b557b0a9414068abbe71ad8c8593612774565b60408051998a526001600160a01b039290921660208a015290880186905296606090a1612acc565b611acb565b60405162461bcd60e51b815260206004820152601b60248201527f4661696c656420746f206469737472696275746520746f6b656e7300000000006044820152606490fd5b90506020813d602011611cf9575b81611ce2602093836126dd565b8101031261016c57611cf390612987565b88611c20565b3d9150611cd5565b909193503d90816000843e611d1682846126dd565b82828101031261016c5781516001600160401b03811161016c57611d3f90828401908401612f00565b5060208201516001600160401b03811161016c57611d61918301908301612f00565b50611d7a6060611d7360408401612b78565b9201612987565b50918780611bb0565b611d9b919250843d86116113395761132581836126dd565b505090509088611b70565b611dbb91503d806000833e61135581836126dd565b88611b27565b506004015483818111611f075760c95460cf546001600160a01b039182169391169181039081116118965760405163a9059cbb60e01b81526001600160a01b03929092166004830152602482015290602090829060449082906000905af1908115610bdb57600091611ecd575b5015611e8f5760cb5491600183018093116118965760cb929092559051604080516001600160a01b03909216825260208201929092527f6c0a22920ff17df2882be32b96efe6c6f2a8ee9afd31289451970b5ab188d5c191819081016109a4565b60405162461bcd60e51b81526020600482015260166024820152754661696c656420746f207472616e736665722066656560501b6044820152606490fd5b90506020813d602011611eff575b81611ee8602093836126dd565b8101031261016c57611ef990612987565b83611e2e565b3d9150611edb565b60405162461bcd60e51b815260206004820152601a60248201527f496e636f727265637420616d6f756e74732073656e74206f75740000000000006044820152606490fd5b013590508680611aa1565b909150601f198316918460005260206000209260005b818110611faa5750908460019594939210611f90575b505050811b019055611ab6565b0135600019600384901b60f8161c19169055868080611f83565b91936020600181928787013581550195019201611f6d565b3461016c57600036600319011261016c57602060cb54604051908152f35b3461016c57600036600319011261016c57602060ce54604051908152f35b3461016c57602036600319011261016c5760043560005260656020526020600160406000200154604051908152f35b3461016c57602036600319011261016c576004359063ffffffff60e01b821680920361016c57602091637965db0b60e01b811490811561206f575b5015158152f35b6301ffc9a760e01b14905083612068565b9181601f8401121561016c578235916001600160401b03831161016c576020838186019501011161016c57565b90604060031983011261016c5760043591602435906001600160401b03821161016c576120dc91600401612080565b9091565b600435906001600160a01b038216820361016c57565b602435906001600160a01b038216820361016c57565b60005b83811061211f5750506000910152565b818101518382015260200161210f565b906020916121488151809281855285808601910161210c565b601f01601f1916010190565b90815180825260208080930193019160005b828110612174575050505090565b835185529381019392810192600101612166565b805182526121ba6121a8602083015160e0602086015260e085019061212f565b6040830151848203604086015261212f565b916060820151926004841015610a3f576121f560c0916122069560608501526080850151608085015260a085015184820360a0860152612154565b9201519060c0818403910152612154565b90565b9181601f8401121561016c578235916001600160401b03831161016c576020808501948460051b01011161016c57565b3360009081527f6d51351eb7b22a09a8f336cea466b225fe287f25ae5dec64ddc74b92c45bf337602090815260408083205490926000805160206130028339815191529160ff161561228b5750505050565b612294336127c3565b918451906122a1826126c2565b6042825284820192606036853782511561242e576030845382519060019182101561242e5790607860218501536041915b8183116123c05750505061237e57604861237a93869361235e9361234f985198899376020b1b1b2b9b9a1b7b73a3937b61d1030b1b1b7bab73a1604d1b8a860152612326815180928c60378901910161210c565b8401917001034b99036b4b9b9b4b733903937b6329607d1b60378401525180938684019061210c565b010360288101875201856126dd565b5192839262461bcd60e51b84526004840152602483019061212f565b0390fd5b60648486519062461bcd60e51b825280600483015260248201527f537472696e67733a20686578206c656e67746820696e73756666696369656e746044820152fd5b909192600f8116601081101561241a576f181899199a1a9b1b9c1cb0b131b232b360811b901a6123f0858761279c565b5360041c928015612406576000190191906122d2565b634e487b7160e01b82526011600452602482fd5b634e487b7160e01b83526032600452602483fd5b634e487b7160e01b81526032600452602490fd5b3360009081527fffdfc1249c027f9191656349feb0761381bb32c9f557e01f419fd08754bf5a1b602090815260408083205490929060ff161561248457505050565b61248d336127c3565b908084519061249b826126c2565b6042825284820192606036853782511561242e576030845382519060019182101561242e5790607860218501536041915b8183116125205750505061237e57604861237a93869361235e9361234f985198899376020b1b1b2b9b9a1b7b73a3937b61d1030b1b1b7bab73a1604d1b8a860152612326815180928c60378901910161210c565b909192600f8116601081101561241a576f181899199a1a9b1b9c1cb0b131b232b360811b901a612550858761279c565b5360041c928015612406576000190191906124cc565b60009080825260209060658252604092838120338252835260ff8482205416156125905750505050565b612599336127c3565b918451906125a6826126c2565b6042825284820192606036853782511561242e576030845382519060019182101561242e5790607860218501536041915b81831161262b5750505061237e57604861237a93869361235e9361234f985198899376020b1b1b2b9b9a1b7b73a3937b61d1030b1b1b7bab73a1604d1b8a860152612326815180928c60378901910161210c565b909192600f8116601081101561241a576f181899199a1a9b1b9c1cb0b131b232b360811b901a61265b858761279c565b5360041c928015612406576000190191906125d7565b60e081019081106001600160401b038211176109c457604052565b604081019081106001600160401b038211176109c457604052565b602081019081106001600160401b038211176109c457604052565b608081019081106001600160401b038211176109c457604052565b90601f801991011681019081106001600160401b038211176109c457604052565b906000918083526065602052604083209160018060a01b03169182845260205260ff60408420541661272f57505050565b8083526065602052604083208284526020526040832060ff1981541690557ff6391f5c32d9c69d2a47ea670b442974b53935d1edc7fd64eb21e047a839171b339380a4565b9190820180921161189657565b6001600160401b0381116109c457601f01601f191660200190565b9081518110156127ad570160200190565b634e487b7160e01b600052603260045260246000fd5b60405190606082018281106001600160401b038211176109c457604052602a82526020820160403682378251156127ad576030905381516001908110156127ad57607860218401536029905b80821161286357505061281f5790565b606460405162461bcd60e51b815260206004820152602060248201527f537472696e67733a20686578206c656e67746820696e73756666696369656e746044820152fd5b9091600f811660108110156128bc576f181899199a1a9b1b9c1cb0b131b232b360811b901a612892848661279c565b5360041c9180156128a757600019019061280f565b60246000634e487b7160e01b81526011600452fd5b60246000634e487b7160e01b81526032600452fd5b156128d857565b60405162461bcd60e51b815260206004820152602b60248201527f496e697469616c697a61626c653a20636f6e7472616374206973206e6f74206960448201526a6e697469616c697a696e6760a81b6064820152608490fd5b600260975414612942576002609755565b60405162461bcd60e51b815260206004820152601f60248201527f5265656e7472616e637947756172643a207265656e7472616e742063616c6c006044820152606490fd5b5190811515820361016c57565b6001600160401b0381116109c45760051b60200190565b92916129b682612994565b916129c460405193846126dd565b829481845260208094019160051b810192831161016c57905b8282106129ea5750505050565b813581529083019083016129dd565b80548210156127ad576000526007602060002091020190600090565b90600182811c92168015612a45575b6020831014612a2f57565b634e487b7160e01b600052602260045260246000fd5b91607f1691612a24565b818110612a5a575050565b60008155600101612a4f565b9190601f8111612a7557505050565b612aa1926000526020600020906020601f840160051c83019310612aa3575b601f0160051c0190612a4f565b565b9091508190612a94565b60cc548110156127ad5760cc60005260206000209060011b0190600090565b60001981146118965760010190565b91908110156127ad5760051b0190565b602090818184031261016c578051906001600160401b03821161016c57019180601f8401121561016c578251612b2081612994565b93612b2e60405195866126dd565b818552838086019260051b82010192831161016c578301905b828210612b55575050505090565b81518152908301908301612b47565b80518210156127ad5760209160051b010190565b51906001600160a01b038216820361016c57565b919082608091031261016c578151916020810151916122066060612bb260408501612b78565b9301612987565b60405190612bc682612671565b606060c08360008152826020820152826040820152600083820152600060808201528260a08201520152565b90604051612bff8161268c565b82546001600160a01b031681526001909201546020830152565b9060405191826000825492612c2d84612a15565b908184526001948581169081600014612c9a5750600114612c57575b5050612aa1925003836126dd565b9093915060005260209081600020936000915b818310612c82575050612aa193508201013880612c49565b85548884018501529485019487945091830191612c6a565b915050612aa194506020925060ff191682840152151560051b8201013880612c49565b9060405191828154918282526020928383019160005283600020936000905b828210612cf257505050612aa1925003836126dd565b855484526001958601958895509381019390910190612cdc565b90604051612d1981612671565b809280548252612d2b60018201612c19565b6020830152612d3c60028201612c19565b604083015260ff600382015416906004821015610a3f576006612d829160c093606086015260048101546080860152612d7760058201612cbd565b60a086015201612cbd565b910152565b612d8f612bb9565b5060cc54811015612db257612dac6113e76113e161220693612aad565b50612d0c565b50604051612dbf81612671565b60008152604051612dcf816126a7565b600081526020820152604051612de4816126a7565b6000815260408201526000606082015260006080820152606060a0820152606060c082015290565b612e14612bb9565b506001600160a01b0316600081815260cd60205260408082205490939290831015612e5057928161220694612dac94935260cd602052206129f9565b509050815191612e5f83612671565b8183528051612e6d816126a7565b8281526020840152805190612e81826126a7565b8282528301528060608301526080820152606060a0820152606060c082015290565b15612eaa57565b60405162461bcd60e51b81526020600482015260166024820152750aadccaf0e0cac6e8cac840e2eacae4f240d2dcc8caf60531b6044820152606490fd5b80548210156127ad5760005260206000200190600090565b81601f8201121561016c578051612f1681612781565b92612f2460405194856126dd565b8184526020828401011161016c57612206916020808501910161210c565b600091908291612f876040518092612f736020830195632d839cb360e21b875260406024850152606484019061212f565b90604483015203601f1981018352826126dd565b51906a636f6e736f6c652e6c6f675afa50565b600091908291612f876040518092612fcb602083019563c3b5563560e01b875260406024850152606484019061212f565b901515604483015203601f1981018352826126dd56fe2f8788117e7eff1d82e926ec794901d17c78024a50270940304540a733656f0dfc9efeb1a4bb8e4320137debe56dee502334d29d03c022fe29495c8d7825ec5fa2646970667358221220d133ff2ef52cd55eb068b136c1abc6978f56fb24ead22455fb7bbfdab625f3e464736f6c63430008130033",
  "linkReferences": {},
  "deployedLinkReferences": {}
}